{
  "contractName": "Notes",
  "abi": [
    {
      "inputs": [
        {
          "internalType": "int256",
          "name": "val",
          "type": "int256"
        },
        {
          "internalType": "string",
          "name": "date",
          "type": "string"
        }
      ],
      "name": "addBp",
      "outputs": [],
      "stateMutability": "nonpayable",
      "type": "function"
    },
    {
      "inputs": [],
      "name": "getBp",
      "outputs": [
        {
          "internalType": "int256[]",
          "name": "",
          "type": "int256[]"
        }
      ],
      "stateMutability": "view",
      "type": "function",
      "constant": true
    },
    {
      "inputs": [],
      "name": "getDate",
      "outputs": [
        {
          "internalType": "string[]",
          "name": "",
          "type": "string[]"
        }
      ],
      "stateMutability": "view",
      "type": "function",
      "constant": true
    }
  ],
  "bytecode": "0x608060405234801561001057600080fd5b5061089b806100206000396000f3fe608060405234801561001057600080fd5b50600436106100415760003560e01c8063430fe9c1146100465780636655dddc146100645780636be1393714610082575b600080fd5b61004e61009e565b60405161005b9190610528565b60405180910390f35b61006c6101b4565b6040516100799190610612565b60405180910390f35b61009c600480360381019061009791906107a9565b610248565b005b6060600160003373ffffffffffffffffffffffffffffffffffffffff1673ffffffffffffffffffffffffffffffffffffffff168152602001908152602001600020805480602002602001604051908101604052809291908181526020016000905b828210156101ab57838290600052602060002001805461011e90610834565b80601f016020809104026020016040519081016040528092919081815260200182805461014a90610834565b80156101975780601f1061016c57610100808354040283529160200191610197565b820191906000526020600020905b81548152906001019060200180831161017a57829003601f168201915b5050505050815260200190600101906100ff565b50505050905090565b60606000803373ffffffffffffffffffffffffffffffffffffffff1673ffffffffffffffffffffffffffffffffffffffff16815260200190815260200160002080548060200260200160405190810160405280929190818152602001828054801561023e57602002820191906000526020600020905b81548152602001906001019080831161022a575b5050505050905090565b6000803373ffffffffffffffffffffffffffffffffffffffff1673ffffffffffffffffffffffffffffffffffffffff168152602001908152602001600020829080600181540180825580915050600190039060005260206000200160009091909190915055600160003373ffffffffffffffffffffffffffffffffffffffff1673ffffffffffffffffffffffffffffffffffffffff1681526020019081526020016000208190806001815401808255809150506001900390600052602060002001600090919091909150908051906020019061032592919061032a565b505050565b82805461033690610834565b90600052602060002090601f016020900481019282610358576000855561039f565b82601f1061037157805160ff191683800117855561039f565b8280016001018555821561039f579182015b8281111561039e578251825591602001919060010190610383565b5b5090506103ac91906103b0565b5090565b5b808211156103c95760008160009055506001016103b1565b5090565b600081519050919050565b600082825260208201905092915050565b6000819050602082019050919050565b600081519050919050565b600082825260208201905092915050565b60005b83811015610433578082015181840152602081019050610418565b83811115610442576000848401525b50505050565b6000601f19601f8301169050919050565b6000610464826103f9565b61046e8185610404565b935061047e818560208601610415565b61048781610448565b840191505092915050565b600061049e8383610459565b905092915050565b6000602082019050919050565b60006104be826103cd565b6104c881856103d8565b9350836020820285016104da856103e9565b8060005b8581101561051657848403895281516104f78582610492565b9450610502836104a6565b925060208a019950506001810190506104de565b50829750879550505050505092915050565b6000602082019050818103600083015261054281846104b3565b905092915050565b600081519050919050565b600082825260208201905092915050565b6000819050602082019050919050565b6000819050919050565b61058981610576565b82525050565b600061059b8383610580565b60208301905092915050565b6000602082019050919050565b60006105bf8261054a565b6105c98185610555565b93506105d483610566565b8060005b838110156106055781516105ec888261058f565b97506105f7836105a7565b9250506001810190506105d8565b5085935050505092915050565b6000602082019050818103600083015261062c81846105b4565b905092915050565b6000604051905090565b600080fd5b600080fd5b61065181610576565b811461065c57600080fd5b50565b60008135905061066e81610648565b92915050565b600080fd5b600080fd5b7f4e487b7100000000000000000000000000000000000000000000000000000000600052604160045260246000fd5b6106b682610448565b810181811067ffffffffffffffff821117156106d5576106d461067e565b5b80604052505050565b60006106e8610634565b90506106f482826106ad565b919050565b600067ffffffffffffffff8211156107145761071361067e565b5b61071d82610448565b9050602081019050919050565b82818337600083830152505050565b600061074c610747846106f9565b6106de565b90508281526020810184848401111561076857610767610679565b5b61077384828561072a565b509392505050565b600082601f8301126107905761078f610674565b5b81356107a0848260208601610739565b91505092915050565b600080604083850312156107c0576107bf61063e565b5b60006107ce8582860161065f565b925050602083013567ffffffffffffffff8111156107ef576107ee610643565b5b6107fb8582860161077b565b9150509250929050565b7f4e487b7100000000000000000000000000000000000000000000000000000000600052602260045260246000fd5b6000600282049050600182168061084c57607f821691505b60208210810361085f5761085e610805565b5b5091905056fea2646970667358221220a6f11b3bcaa6fedd1e6ace4514b1277443e38b96b993ce35bca0e7b35bfbf17964736f6c634300080d0033",
  "immutableReferences": {},
  "source": "//SPDX-License-Identifier: UNLICENSED\npragma solidity >0.5.0;\n\ncontract Notes{\n\n    mapping (address=>int[]) bpValues;\n    mapping (address=>string[]) dates;\n\n\n\n\n    function addBp(int val,string memory date) public{\n            bpValues[msg.sender].push(val);\n            dates[msg.sender].push(date);\n          \n    }\n\n\n    function getBp() public view returns(int[] memory){\n            return bpValues[msg.sender];\n    }\n\n    function getDate() public view returns(string[] memory) {\n            return dates[msg.sender];\n    }\n\n}",
  "sourcePath": "E:\\z_main_folder\\6th_sem\\mini_project\\MiniProject\\mini_smart\\contracts\\Notes.sol",
  "compiler": {
    "name": "solc",
    "version": "0.8.13+commit.abaa5c0e.Emscripten.clang"
  },
  "schemaVersion": "3.4.7",
  "updatedAt": "2022-06-30T06:51:26.856Z",
  "networkType": "ethereum",
  "devdoc": {
    "kind": "dev",
    "methods": {},
    "version": 1
  },
  "userdoc": {
    "kind": "user",
    "methods": {},
    "version": 1
  }
}