{
  "contractName": "Notes",
  "abi": [
    {
      "constant": false,
      "inputs": [
        {
          "internalType": "int256",
          "name": "val",
          "type": "int256"
        },
        {
          "internalType": "string",
          "name": "date",
          "type": "string"
        }
      ],
      "name": "addBp",
      "outputs": [],
      "payable": false,
      "stateMutability": "nonpayable",
      "type": "function"
    },
    {
      "constant": true,
      "inputs": [],
      "name": "getBp",
      "outputs": [
        {
          "internalType": "int256[]",
          "name": "",
          "type": "int256[]"
        }
      ],
      "payable": false,
      "stateMutability": "view",
      "type": "function"
    },
    {
      "constant": true,
      "inputs": [],
      "name": "getDate",
      "outputs": [
        {
          "internalType": "string[]",
          "name": "",
          "type": "string[]"
        }
      ],
      "payable": false,
      "stateMutability": "view",
      "type": "function"
    }
  ],
  "bytecode": "0x608060405234801561001057600080fd5b506105e4806100206000396000f3fe608060405234801561001057600080fd5b506004361061005d577c01000000000000000000000000000000000000000000000000000000006000350463430fe9c181146100625780636655dddc146100805780636be1393714610095575b600080fd5b61006a6100aa565b60405161007791906104d5565b60405180910390f35b61008861018e565b60405161007791906104c4565b6100a86100a336600461033d565b6101ed565b005b336000908152600160209081526040808320805482518185028101850190935280835260609492939192909184015b828210156101845760008481526020908190208301805460408051601f60026000196101006001871615020190941693909304928301859004850281018501909152818152928301828280156101705780601f1061014557610100808354040283529160200191610170565b820191906000526020600020905b81548152906001019060200180831161015357829003601f168201915b5050505050815260200190600101906100d9565b5050505090505b90565b33600090815260208181526040918290208054835181840281018401909452808452606093928301828280156101e357602002820191906000526020600020905b8154815260200190600101908083116101cf575b5050505050905090565b336000818152602081815260408083208054600181810183559185528385200187905593835283825282208054938401808255908352918190208451929361023a93910191850190610240565b50505050565b828054600181600116156101000203166002900490600052602060002090601f016020900481019282601f1061028157805160ff19168380011785556102ae565b828001600101855582156102ae579182015b828111156102ae578251825591602001919060010190610293565b506102ba9291506102be565b5090565b61018b91905b808211156102ba57600081556001016102c4565b80356102e38161058a565b92915050565b600082601f8301126102fa57600080fd5b813561030d6103088261050d565b6104e6565b9150808252602083016020830185838301111561032957600080fd5b610334838284610548565b50505092915050565b6000806040838503121561035057600080fd5b600061035c85856102d8565b925050602083013567ffffffffffffffff81111561037957600080fd5b610385858286016102e9565b9150509250929050565b600061039b838361047d565b505060200190565b60006103af838361048c565b9392505050565b60006103c18261053b565b6103cb818561053f565b93506103d683610535565b8060005b838110156104045781516103ee888261038f565b97506103f983610535565b9250506001016103da565b509495945050505050565b600061041a8261053b565b610424818561053f565b93508360208202850161043685610535565b8060005b85811015610470578484038952815161045385826103a3565b945061045e83610535565b60209a909a019992505060010161043a565b5091979650505050505050565b6104868161018b565b82525050565b60006104978261053b565b6104a1818561053f565b93506104b1818560208601610554565b6104ba81610580565b9093019392505050565b602080825281016103af81846103b6565b602080825281016103af818461040f565b60405181810167ffffffffffffffff8111828210171561050557600080fd5b604052919050565b600067ffffffffffffffff82111561052457600080fd5b506020601f91909101601f19160190565b60200190565b5190565b90815260200190565b82818337506000910152565b60005b8381101561056f578181015183820152602001610557565b8381111561023a5750506000910152565b601f01601f191690565b6105938161018b565b811461059e57600080fd5b5056fea365627a7a7231582098220b4d00a6ed209deae3ce0f22d91a84f9a5fee85699c48f5a35a66417cdfa6c6578706572696d656e74616cf564736f6c63430005110040",
  "source": "pragma solidity >0.5.0;\r\npragma experimental ABIEncoderV2;\r\n\r\ncontract Notes{\r\n    mapping (address=>int[]) bpValues;\r\n    mapping (address=>string[]) dates;\r\n\r\n    function addBp(int val,string memory date) public{\r\n            bpValues[msg.sender].push(val);\r\n            dates[msg.sender].push(date);\r\n    }\r\n\r\n\r\n    function getBp() public view returns(int[] memory){\r\n            return bpValues[msg.sender];\r\n    }\r\n\r\n    function getDate() public view returns(string[] memory) {\r\n            return dates[msg.sender];\r\n    }\r\n\r\n} ",
  "sourcePath": "E:\\z_main_folder\\6th_sem\\mini_project\\santhu\\miniproject\\contracts\\Notes.sol",
  "compiler": {
    "name": "solc",
    "version": "0.5.17+commit.d19bba13.Emscripten.clang"
  },
  "schemaVersion": "3.4.7",
  "updatedAt": "2022-07-07T04:27:05.335Z",
  "networkType": "ethereum",
  "devdoc": {
    "methods": {}
  },
  "userdoc": {
    "methods": {}
  }
}