{
  "contractName": "optimized_healthCare",
  "abi": [
    {
      "inputs": [],
      "payable": false,
      "stateMutability": "nonpayable",
      "type": "constructor"
    },
    {
      "anonymous": false,
      "inputs": [
        {
          "indexed": false,
          "internalType": "address",
          "name": "_doctor",
          "type": "address"
        },
        {
          "indexed": false,
          "internalType": "string",
          "name": "message",
          "type": "string"
        }
      ],
      "name": "doctorSignUp",
      "type": "event"
    },
    {
      "anonymous": false,
      "inputs": [
        {
          "indexed": false,
          "internalType": "address",
          "name": "patient_address",
          "type": "address"
        },
        {
          "indexed": false,
          "internalType": "string",
          "name": "message",
          "type": "string"
        },
        {
          "indexed": false,
          "internalType": "string",
          "name": "_doctor",
          "type": "string"
        },
        {
          "indexed": false,
          "internalType": "address",
          "name": "doctor_address",
          "type": "address"
        }
      ],
      "name": "grantDoctorAccess",
      "type": "event"
    },
    {
      "anonymous": false,
      "inputs": [
        {
          "indexed": false,
          "internalType": "address",
          "name": "_patient",
          "type": "address"
        },
        {
          "indexed": false,
          "internalType": "string",
          "name": "message",
          "type": "string"
        }
      ],
      "name": "patientSignUp",
      "type": "event"
    },
    {
      "anonymous": false,
      "inputs": [
        {
          "indexed": false,
          "internalType": "address",
          "name": "patient_address",
          "type": "address"
        },
        {
          "indexed": false,
          "internalType": "string",
          "name": "message",
          "type": "string"
        },
        {
          "indexed": false,
          "internalType": "string",
          "name": "_doctor",
          "type": "string"
        },
        {
          "indexed": false,
          "internalType": "address",
          "name": "doctor_address",
          "type": "address"
        }
      ],
      "name": "revokeDoctorAccess",
      "type": "event"
    },
    {
      "constant": false,
      "inputs": [
        {
          "internalType": "address",
          "name": "_id",
          "type": "address"
        },
        {
          "internalType": "string",
          "name": "_name",
          "type": "string"
        },
        {
          "internalType": "string",
          "name": "_location",
          "type": "string"
        },
        {
          "internalType": "string",
          "name": "_license",
          "type": "string"
        }
      ],
      "name": "hospitalSignUp",
      "outputs": [],
      "payable": false,
      "stateMutability": "nonpayable",
      "type": "function"
    },
    {
      "constant": false,
      "inputs": [
        {
          "internalType": "string",
          "name": "_name",
          "type": "string"
        },
        {
          "internalType": "string",
          "name": "_contact",
          "type": "string"
        },
        {
          "internalType": "string",
          "name": "_gender",
          "type": "string"
        }
      ],
      "name": "signupPatient",
      "outputs": [],
      "payable": false,
      "stateMutability": "nonpayable",
      "type": "function"
    },
    {
      "constant": false,
      "inputs": [
        {
          "internalType": "address",
          "name": "_id",
          "type": "address"
        },
        {
          "internalType": "string",
          "name": "_name",
          "type": "string"
        },
        {
          "internalType": "string",
          "name": "_contact",
          "type": "string"
        },
        {
          "internalType": "string",
          "name": "_specialization",
          "type": "string"
        }
      ],
      "name": "signupDoctor",
      "outputs": [],
      "payable": false,
      "stateMutability": "nonpayable",
      "type": "function"
    },
    {
      "constant": false,
      "inputs": [
        {
          "internalType": "address",
          "name": "doctor_id",
          "type": "address"
        }
      ],
      "name": "grantAccessToDoctor",
      "outputs": [],
      "payable": false,
      "stateMutability": "nonpayable",
      "type": "function"
    },
    {
      "constant": false,
      "inputs": [
        {
          "internalType": "address",
          "name": "doctor_id",
          "type": "address"
        }
      ],
      "name": "revokeAccessFromDoctor",
      "outputs": [],
      "payable": false,
      "stateMutability": "nonpayable",
      "type": "function"
    },
    {
      "constant": false,
      "inputs": [
        {
          "internalType": "string",
          "name": "_file_name",
          "type": "string"
        },
        {
          "internalType": "string",
          "name": "_file_type",
          "type": "string"
        },
        {
          "internalType": "string",
          "name": "_file_hash",
          "type": "string"
        }
      ],
      "name": "addUserFiles",
      "outputs": [],
      "payable": false,
      "stateMutability": "nonpayable",
      "type": "function"
    },
    {
      "constant": true,
      "inputs": [
        {
          "internalType": "address",
          "name": "sender",
          "type": "address"
        }
      ],
      "name": "getUserFiles",
      "outputs": [
        {
          "components": [
            {
              "internalType": "string",
              "name": "file_name",
              "type": "string"
            },
            {
              "internalType": "string",
              "name": "file_type",
              "type": "string"
            },
            {
              "internalType": "string",
              "name": "file_hash",
              "type": "string"
            }
          ],
          "internalType": "struct optimized_healthCare.files[]",
          "name": "",
          "type": "tuple[]"
        }
      ],
      "payable": false,
      "stateMutability": "view",
      "type": "function"
    },
    {
      "constant": true,
      "inputs": [],
      "name": "getPatientInfo",
      "outputs": [
        {
          "internalType": "string",
          "name": "",
          "type": "string"
        },
        {
          "internalType": "address",
          "name": "",
          "type": "address"
        },
        {
          "internalType": "string",
          "name": "",
          "type": "string"
        },
        {
          "internalType": "bytes32[]",
          "name": "",
          "type": "bytes32[]"
        },
        {
          "internalType": "address[]",
          "name": "",
          "type": "address[]"
        },
        {
          "internalType": "string",
          "name": "",
          "type": "string"
        },
        {
          "internalType": "string",
          "name": "",
          "type": "string"
        }
      ],
      "payable": false,
      "stateMutability": "view",
      "type": "function"
    },
    {
      "constant": true,
      "inputs": [],
      "name": "getDoctorInfo",
      "outputs": [
        {
          "internalType": "string",
          "name": "",
          "type": "string"
        },
        {
          "internalType": "address",
          "name": "",
          "type": "address"
        },
        {
          "internalType": "address[]",
          "name": "",
          "type": "address[]"
        },
        {
          "internalType": "string",
          "name": "",
          "type": "string"
        },
        {
          "internalType": "string",
          "name": "",
          "type": "string"
        }
      ],
      "payable": false,
      "stateMutability": "view",
      "type": "function"
    },
    {
      "constant": true,
      "inputs": [
        {
          "internalType": "uint64",
          "name": "_adhaar_number",
          "type": "uint64"
        }
      ],
      "name": "checkDoctorInfo",
      "outputs": [
        {
          "internalType": "bool",
          "name": "",
          "type": "bool"
        },
        {
          "internalType": "address",
          "name": "",
          "type": "address"
        }
      ],
      "payable": false,
      "stateMutability": "view",
      "type": "function"
    },
    {
      "constant": true,
      "inputs": [
        {
          "internalType": "uint64",
          "name": "_adhaar_number",
          "type": "uint64"
        }
      ],
      "name": "checkPatientInfo",
      "outputs": [
        {
          "internalType": "bool",
          "name": "",
          "type": "bool"
        },
        {
          "internalType": "address",
          "name": "",
          "type": "address"
        }
      ],
      "payable": false,
      "stateMutability": "view",
      "type": "function"
    },
    {
      "constant": true,
      "inputs": [
        {
          "internalType": "address",
          "name": "pat",
          "type": "address"
        }
      ],
      "name": "getPatientInfoForDoctor",
      "outputs": [
        {
          "internalType": "string",
          "name": "",
          "type": "string"
        },
        {
          "internalType": "string",
          "name": "",
          "type": "string"
        },
        {
          "internalType": "address",
          "name": "",
          "type": "address"
        },
        {
          "components": [
            {
              "internalType": "string",
              "name": "file_name",
              "type": "string"
            },
            {
              "internalType": "string",
              "name": "file_type",
              "type": "string"
            },
            {
              "internalType": "string",
              "name": "file_hash",
              "type": "string"
            }
          ],
          "internalType": "struct optimized_healthCare.files[]",
          "name": "",
          "type": "tuple[]"
        }
      ],
      "payable": false,
      "stateMutability": "view",
      "type": "function"
    },
    {
      "constant": true,
      "inputs": [],
      "name": "getHospitalInfo",
      "outputs": [
        {
          "internalType": "address",
          "name": "",
          "type": "address"
        },
        {
          "internalType": "string",
          "name": "",
          "type": "string"
        },
        {
          "internalType": "string",
          "name": "",
          "type": "string"
        },
        {
          "internalType": "string",
          "name": "",
          "type": "string"
        }
      ],
      "payable": false,
      "stateMutability": "view",
      "type": "function"
    },
    {
      "constant": true,
      "inputs": [],
      "name": "getAdminInfo",
      "outputs": [
        {
          "internalType": "address",
          "name": "",
          "type": "address"
        }
      ],
      "payable": false,
      "stateMutability": "view",
      "type": "function"
    },
    {
      "constant": false,
      "inputs": [
        {
          "internalType": "address",
          "name": "_user",
          "type": "address"
        },
        {
          "internalType": "address",
          "name": "_patient",
          "type": "address"
        }
      ],
      "name": "hospitalGrantAccess",
      "outputs": [],
      "payable": false,
      "stateMutability": "nonpayable",
      "type": "function"
    },
    {
      "constant": false,
      "inputs": [
        {
          "internalType": "address",
          "name": "_id",
          "type": "address"
        },
        {
          "internalType": "string",
          "name": "_name",
          "type": "string"
        },
        {
          "internalType": "string",
          "name": "_location",
          "type": "string"
        },
        {
          "internalType": "string",
          "name": "_license",
          "type": "string"
        }
      ],
      "name": "addHospital",
      "outputs": [],
      "payable": false,
      "stateMutability": "nonpayable",
      "type": "function"
    },
    {
      "constant": false,
      "inputs": [
        {
          "internalType": "address",
          "name": "_id",
          "type": "address"
        },
        {
          "internalType": "string",
          "name": "_name",
          "type": "string"
        },
        {
          "internalType": "string",
          "name": "_complicense",
          "type": "string"
        }
      ],
      "name": "regInsuranceComp",
      "outputs": [],
      "payable": false,
      "stateMutability": "nonpayable",
      "type": "function"
    },
    {
      "constant": true,
      "inputs": [],
      "name": "getInsuranceCompInfo",
      "outputs": [
        {
          "internalType": "address",
          "name": "",
          "type": "address"
        },
        {
          "internalType": "string",
          "name": "",
          "type": "string"
        },
        {
          "internalType": "string",
          "name": "",
          "type": "string"
        },
        {
          "internalType": "address[]",
          "name": "",
          "type": "address[]"
        }
      ],
      "payable": false,
      "stateMutability": "view",
      "type": "function"
    },
    {
      "constant": false,
      "inputs": [
        {
          "internalType": "address",
          "name": "_insuranceComp",
          "type": "address"
        },
        {
          "internalType": "address",
          "name": "_pat",
          "type": "address"
        }
      ],
      "name": "addPatientToInsuranceComp",
      "outputs": [],
      "payable": false,
      "stateMutability": "nonpayable",
      "type": "function"
    },
    {
      "constant": false,
      "inputs": [
        {
          "internalType": "address",
          "name": "_doc",
          "type": "address"
        },
        {
          "internalType": "string",
          "name": "_name",
          "type": "string"
        },
        {
          "internalType": "string",
          "name": "_DOB",
          "type": "string"
        },
        {
          "internalType": "uint24",
          "name": "_pincode",
          "type": "uint24"
        },
        {
          "internalType": "uint64",
          "name": "_adhaar_number",
          "type": "uint64"
        }
      ],
      "name": "addDoctorAdhaarInfo",
      "outputs": [],
      "payable": false,
      "stateMutability": "nonpayable",
      "type": "function"
    },
    {
      "constant": false,
      "inputs": [
        {
          "internalType": "address",
          "name": "_pat",
          "type": "address"
        },
        {
          "internalType": "string",
          "name": "_name",
          "type": "string"
        },
        {
          "internalType": "string",
          "name": "_DOB",
          "type": "string"
        },
        {
          "internalType": "uint24",
          "name": "_pincode",
          "type": "uint24"
        },
        {
          "internalType": "uint64",
          "name": "_adhaar_number",
          "type": "uint64"
        }
      ],
      "name": "addPatientAdhaarInfo",
      "outputs": [],
      "payable": false,
      "stateMutability": "nonpayable",
      "type": "function"
    }
  ],
  "bytecode": "0x608060405234801561001057600080fd5b5060008054600160a060020a031916737a8d093a81350f33c15aca293e3e1d546bf30cc5179055615d2880620000476000396000f3fe608060405234801561001057600080fd5b5060043610610194576000357c010000000000000000000000000000000000000000000000000000000090048063629e559d116100f5578063b380f5c6116100a9578063c4fa7adb11610083578063c4fa7adb1461032a578063c981893014610342578063fe59cc1a1461035557610194565b8063b380f5c6146102e9578063b609af2614610302578063c3d5fd391461031557610194565b806397f7f06d116100da57806397f7f06d146102a2578063ab9cff18146102b5578063ae2ed42f146102c857610194565b8063629e559d1461027c57806380bb336f1461028f57610194565b80632cecb5231161014c5780633b17c592116101315780633b17c5921461023e578063405b8af0146102565780635a13dcd61461026957610194565b80632cecb52314610210578063326df6641461022357610194565b80631fc379221161017d5780631fc37922146101c15780631fd4be9b146101ea5780632ae48e40146101fd57610194565b80630ab10841146101995780631c8e251c146101ae575b600080fd5b6101ac6101a73660046153b0565b610378565b005b6101ac6101bc3660046152d3565b610696565b6101d46101cf3660046152d3565b610df2565b6040516101e19190615a5b565b60405180910390f35b6101ac6101f8366004615459565b61102a565b6101ac61020b3660046154fe565b6112ec565b6101ac61021e3660046152f9565b611383565b61022b611823565b6040516101e19796959493929190615aec565b610246611f87565b6040516101e194939291906159a2565b6101ac6102643660046153b0565b612172565b6101ac6102773660046153b0565b612550565b6101ac61028a3660046152d3565b612771565b6101ac61029d366004615333565b612e2d565b6101ac6102b03660046152f9565b6130fd565b6101ac6102c33660046154fe565b6131a0565b6102db6102d6366004615536565b61358c565b6040516101e1929190615a6c565b6102f1613acb565b6040516101e1959493929190615a87565b6101ac610310366004615459565b614029565b61031d6142a5565b6040516101e19190615914565b6103326142ce565b6040516101e194939291906159f4565b6102db610350366004615536565b6145ad565b6103686103633660046152d3565b6149fc565b6040516101e19493929190615b7b565b600054600160a060020a0316331461038f57600080fd5b610397614fce565b600160a060020a03858116600090815260066020908152604091829020825160808101845281549094168452600180820180548551600261010094831615949094026000190190911692909204601f81018590048502830185019095528482529193858401939192918301828280156104515780601f1061042657610100808354040283529160200191610451565b820191906000526020600020905b81548152906001019060200180831161043457829003601f168201915b5050509183525050600282810180546040805160206001841615610100026000190190931694909404601f810183900483028501830190915280845293810193908301828280156104e35780601f106104b8576101008083540402835291602001916104e3565b820191906000526020600020905b8154815290600101906020018083116104c657829003601f168201915b505050918352505060038201805460408051602060026001851615610100026000190190941693909304601f81018490048402820184019092528181529382019392918301828280156105775780601f1061054c57610100808354040283529160200191610577565b820191906000526020600020905b81548152906001019060200180831161055a57829003601f168201915b505050919092525050815191925050600160a060020a03161561059957600080fd5b6040516105a590615909565b6040518091039020846040516020016105be91906158fd565b6040516020818303038152906040528051906020012014156105df57600080fd5b60408051608081018252600160a060020a03878116808352602080840189815284860189905260608501889052600092835260068252949091208351815473ffffffffffffffffffffffffffffffffffffffff1916931692909217825592518051929391926106549260018501920190614fff565b5060408201518051610670916002840191602090910190614fff565b506060820151805161068c916003840191602090910190614fff565b5050505050505050565b3361069f61507d565b600160a060020a03821660009081526002602081815260409283902083518154610120601f60001960018416156101009081029190910190931696909604958601859004909402820184019095529384018381529092849284919084018282801561074b5780601f106107205761010080835404028352916020019161074b565b820191906000526020600020905b81548152906001019060200180831161072e57829003601f168201915b50505050508152602001600182018054600181600116156101000203166002900480601f0160208091040260200160405190810160405280929190818152602001828054600181600116156101000203166002900480156107ed5780601f106107c2576101008083540402835291602001916107ed565b820191906000526020600020905b8154815290600101906020018083116107d057829003601f168201915b505050918352505060028281015467ffffffffffffffff811660208085019190915268010000000000000000909104600160a060020a031660408085019190915260038501805482516101006001831615026000190190911694909404601f8101849004840285018401909252818452606090940193918301828280156108b55780601f1061088a576101008083540402835291602001916108b5565b820191906000526020600020905b81548152906001019060200180831161089857829003601f168201915b505050918352505060048201805460408051602060026001851615610100026000190190941693909304601f81018490048402820184019092528181529382019392918301828280156109495780601f1061091e57610100808354040283529160200191610949565b820191906000526020600020905b81548152906001019060200180831161092c57829003601f168201915b50505050508152602001600582018054806020026020016040519081016040528092919081815260200182805480156109a157602002820191906000526020600020905b81548152602001906001019080831161098d575b5050505050815260200160068201805480602002602001604051908101604052809291908181526020018280548015610a0357602002820191906000526020600020905b8154600160a060020a031681526001909101906020018083116109e5575b50505050508152505090506000600160a060020a03168160600151600160a060020a031611610a3157600080fd5b82610a3a6150d5565b600160a060020a0382166000908152600160208181526040928390208351815460029481161561010002600019011693909304601f8101839004909202830160e090810190945260c083018281529293909284929091849190840182828015610ae45780601f10610ab957610100808354040283529160200191610ae4565b820191906000526020600020905b815481529060010190602001808311610ac757829003601f168201915b5050509183525050600182810154600160a060020a0381166020808501919091527401000000000000000000000000000000000000000090910467ffffffffffffffff166040808501919091526002808601805483516101009682161596909602600019011691909104601f810184900484028501840190925281845260609094019391830182828015610bb95780601f10610b8e57610100808354040283529160200191610bb9565b820191906000526020600020905b815481529060010190602001808311610b9c57829003601f168201915b505050918352505060038201805460408051602060026001851615610100026000190190941693909304601f8101849004840282018401909252818152938201939291830182828015610c4d5780601f10610c2257610100808354040283529160200191610c4d565b820191906000526020600020905b815481529060010190602001808311610c3057829003601f168201915b5050505050815260200160048201805480602002602001604051908101604052809291908181526020018280548015610caf57602002820191906000526020600020905b8154600160a060020a03168152600190910190602001808311610c91575b50505050508152505090506000600160a060020a03168160200151600160a060020a031611610cdd57600080fd5b336000818152600260209081526040808320600160a060020a038a16808552600180855283862096865260038552838620918652935292205491929161ffff1610610d2757600080fd5b600682018054600180820180845560009384526020808520909301805473ffffffffffffffffffffffffffffffffffffffff19908116600160a060020a038e1690811790925533808752600386526040808820938852928652828720805461ffff191661ffff8616179055600488018054958601815587529490952090920180549094168317909355517fe239c4e608cb32aaf8ef7214f811e28ea27c91cad9f719be74579c18fc2e983191610de09185908c90615941565b60405180910390a15050505050505050565b600160a060020a0381166000908152600560209081526040808320805482518185028101850190935280835260609492939192909184015b8282101561101f5760008481526020908190206040805160038602909201805460026001821615610100026000190190911604601f8101859004909402830160809081019092526060830184815292939092849290918491840182828015610ed35780601f10610ea857610100808354040283529160200191610ed3565b820191906000526020600020905b815481529060010190602001808311610eb657829003601f168201915b50505050508152602001600182018054600181600116156101000203166002900480601f016020809104026020016040519081016040528092919081815260200182805460018160011615610100020316600290048015610f755780601f10610f4a57610100808354040283529160200191610f75565b820191906000526020600020905b815481529060010190602001808311610f5857829003601f168201915b5050509183525050600282810180546040805160206001841615610100026000190190931694909404601f810183900483028501830190915280845293810193908301828280156110075780601f10610fdc57610100808354040283529160200191611007565b820191906000526020600020905b815481529060010190602001808311610fea57829003601f168201915b50505050508152505081526020019060010190610e2a565b505050509050919050565b61103261511e565b600160a060020a03868116600090815260096020908152604091829020825160a081018452815494851681527401000000000000000000000000000000000000000090940467ffffffffffffffff1684830152600180820180548551600261010094831615949094026000190190911692909204601f810185900485028301850186528083529294860193919290918301828280156111125780601f106110e757610100808354040283529160200191611112565b820191906000526020600020905b8154815290600101906020018083116110f557829003601f168201915b5050509183525050600282810180546040805160206001841615610100026000190190931694909404601f810183900483028501830190915280845293810193908301828280156111a45780601f10611179576101008083540402835291602001916111a4565b820191906000526020600020905b81548152906001019060200180831161118757829003601f168201915b50505091835250506003919091015462ffffff1660209182015281015190915067ffffffffffffffff16156111d857600080fd5b6040805160a081018252600160a060020a0388811680835267ffffffffffffffff86811660208086019182528587018c8152606087018c905262ffffff8b1660808801526000948552600982529690932085518154925173ffffffffffffffffffffffffffffffffffffffff199093169516949094177fffffffff0000000000000000ffffffffffffffffffffffffffffffffffffffff1674010000000000000000000000000000000000000000919092160217825592518051929391926112a69260018501920190614fff565b50606082015180516112c2916002840191602090910190614fff565b50608091909101516003909101805462ffffff191662ffffff909216919091179055505050505050565b336000908152600560209081526040808320815160608101835287815280840187905291820185905280546001810180835591855293839020825180519295939460039094029091019261134592849290910190614fff565b50602082810151805161135e9260018501920190614fff565b506040820151805161137a916002840191602090910190614fff565b50505050505050565b8061138c61507d565b600160a060020a03821660009081526002602081815260409283902083518154610120601f6000196001841615610100908102919091019093169690960495860185900490940282018401909552938401838152909284928491908401828280156114385780601f1061140d57610100808354040283529160200191611438565b820191906000526020600020905b81548152906001019060200180831161141b57829003601f168201915b50505050508152602001600182018054600181600116156101000203166002900480601f0160208091040260200160405190810160405280929190818152602001828054600181600116156101000203166002900480156114da5780601f106114af576101008083540402835291602001916114da565b820191906000526020600020905b8154815290600101906020018083116114bd57829003601f168201915b505050918352505060028281015467ffffffffffffffff811660208085019190915268010000000000000000909104600160a060020a031660408085019190915260038501805482516101006001831615026000190190911694909404601f8101849004840285018401909252818452606090940193918301828280156115a25780601f10611577576101008083540402835291602001916115a2565b820191906000526020600020905b81548152906001019060200180831161158557829003601f168201915b505050918352505060048201805460408051602060026001851615610100026000190190941693909304601f81018490048402820184019092528181529382019392918301828280156116365780601f1061160b57610100808354040283529160200191611636565b820191906000526020600020905b81548152906001019060200180831161161957829003601f168201915b505050505081526020016005820180548060200260200160405190810160405280929190818152602001828054801561168e57602002820191906000526020600020905b81548152602001906001019080831161167a575b50505050508152602001600682018054806020026020016040519081016040528092919081815260200182805480156116f057602002820191906000526020600020905b8154600160a060020a031681526001909101906020018083116116d2575b50505050508152505090506000600160a060020a03168160600151600160a060020a03161161171e57600080fd5b600160a060020a038085166000908152600160208181526040808420888616855260029092529092209082015491929091161561181b57600160a060020a038086166000908152600360209081526040808320938a1683529290522054600161ffff9091161061178d57600080fd5b6006810180546001818101808455600093845260208085209093018054600160a060020a03808d1673ffffffffffffffffffffffffffffffffffffffff1992831681179093558b16808752600386526040808820938852928652918620805461ffff90941661ffff199094169390931790925560048701805493840181558552929093200180549092161790555b505050505050565b6060600060608060608060603361183861507d565b600160a060020a03821660009081526002602081815260409283902083518154610120601f6000196001841615610100908102919091019093169690960495860185900490940282018401909552938401838152909284928491908401828280156118e45780601f106118b9576101008083540402835291602001916118e4565b820191906000526020600020905b8154815290600101906020018083116118c757829003601f168201915b50505050508152602001600182018054600181600116156101000203166002900480601f0160208091040260200160405190810160405280929190818152602001828054600181600116156101000203166002900480156119865780601f1061195b57610100808354040283529160200191611986565b820191906000526020600020905b81548152906001019060200180831161196957829003601f168201915b505050918352505060028281015467ffffffffffffffff811660208085019190915268010000000000000000909104600160a060020a031660408085019190915260038501805482516101006001831615026000190190911694909404601f810184900484028501840190925281845260609094019391830182828015611a4e5780601f10611a2357610100808354040283529160200191611a4e565b820191906000526020600020905b815481529060010190602001808311611a3157829003601f168201915b505050918352505060048201805460408051602060026001851615610100026000190190941693909304601f8101849004840282018401909252818152938201939291830182828015611ae25780601f10611ab757610100808354040283529160200191611ae2565b820191906000526020600020905b815481529060010190602001808311611ac557829003601f168201915b5050505050815260200160058201805480602002602001604051908101604052809291908181526020018280548015611b3a57602002820191906000526020600020905b815481526020019060010190808311611b26575b5050505050815260200160068201805480602002602001604051908101604052809291908181526020018280548015611b9c57602002820191906000526020600020905b8154600160a060020a03168152600190910190602001808311611b7e575b50505050508152505090506000600160a060020a03168160600151600160a060020a031611611bca57600080fd5b611bd261507d565b3360009081526002602081815260409283902083518154610120601f600019600184161561010090810291909101909316969096049586018590049094028201840190955293840183815290928492849190840182828015611c755780601f10611c4a57610100808354040283529160200191611c75565b820191906000526020600020905b815481529060010190602001808311611c5857829003601f168201915b50505050508152602001600182018054600181600116156101000203166002900480601f016020809104026020016040519081016040528092919081815260200182805460018160011615610100020316600290048015611d175780601f10611cec57610100808354040283529160200191611d17565b820191906000526020600020905b815481529060010190602001808311611cfa57829003601f168201915b505050918352505060028281015467ffffffffffffffff811660208085019190915268010000000000000000909104600160a060020a031660408085019190915260038501805482516101006001831615026000190190911694909404601f810184900484028501840190925281845260609094019391830182828015611ddf5780601f10611db457610100808354040283529160200191611ddf565b820191906000526020600020905b815481529060010190602001808311611dc257829003601f168201915b505050918352505060048201805460408051602060026001851615610100026000190190941693909304601f8101849004840282018401909252818152938201939291830182828015611e735780601f10611e4857610100808354040283529160200191611e73565b820191906000526020600020905b815481529060010190602001808311611e5657829003601f168201915b5050505050815260200160058201805480602002602001604051908101604052809291908181526020018280548015611ecb57602002820191906000526020600020905b815481526020019060010190808311611eb7575b5050505050815260200160068201805480602002602001604051908101604052809291908181526020018280548015611f2d57602002820191906000526020600020905b8154600160a060020a03168152600190910190602001808311611f0f575b50505050508152505090508060000151816060015182602001518360c001518460e0015185608001518660a00151869650849450839350829250819150809050995099509950995099509950995050505090919293949596565b60006060806060611f96614fce565b3360009081526007602090815260409182902082516080810184528154600160a060020a03168152600180830180548651600261010094831615949094026000190190911692909204601f810186900486028301860190965285825291949293858101939192919083018282801561204f5780601f106120245761010080835404028352916020019161204f565b820191906000526020600020905b81548152906001019060200180831161203257829003601f168201915b5050509183525050600282810180546040805160206001841615610100026000190190931694909404601f810183900483028501830190915280845293810193908301828280156120e15780601f106120b6576101008083540402835291602001916120e1565b820191906000526020600020905b8154815290600101906020018083116120c457829003601f168201915b505050505081526020016004820180548060200260200160405190810160405280929190818152602001828054801561214357602002820191906000526020600020905b8154600160a060020a03168152600190910190602001808311612125575b505050919092525050815160208301516040840151606090940151919850965091945090925050505b90919293565b600160a060020a038416600090815260016020526040902061219261511e565b600160a060020a03868116600090815260096020908152604091829020825160a081018452815494851681527401000000000000000000000000000000000000000090940467ffffffffffffffff1684830152600180820180548551600261010094831615949094026000190190911692909204601f810185900485028301850186528083529294860193919290918301828280156122725780601f1061224757610100808354040283529160200191612272565b820191906000526020600020905b81548152906001019060200180831161225557829003601f168201915b5050509183525050600282810180546040805160206001841615610100026000190190931694909404601f810183900483028501830190915280845293810193908301828280156123045780601f106122d957610100808354040283529160200191612304565b820191906000526020600020905b8154815290600101906020018083116122e757829003601f168201915b50505091835250506003919091015462ffffff1660209091015260405190915061232d90615909565b60405180910390208560405160200161234691906158fd565b60405160208183030381529060405280519060200120141561236757600080fd5b6001820154600160a060020a03161561237f57600080fd5b6000816020015167ffffffffffffffff161161239a57600080fd5b6040518060c0016040528086815260200187600160a060020a03168152602001826020015167ffffffffffffffff1681526020018581526020018481526020016000604051908082528060200260200182016040528015612405578160200160208202803883390190505b509052600160a060020a038716600090815260016020908152604090912082518051919261243892849290910190614fff565b50602082810151600183018054604086015167ffffffffffffffff1674010000000000000000000000000000000000000000027fffffffff0000000000000000ffffffffffffffffffffffffffffffffffffffff600160a060020a0390941673ffffffffffffffffffffffffffffffffffffffff199092169190911792909216919091179055606083015180516124d59260028501920190614fff565b50608082015180516124f1916003840191602090910190614fff565b5060a0820151805161250d916004840191602090910190615165565b509050507fdd0aa1d3beead09f31cc046643e0d63829e7c7f43e532c2523d978bc9c3bfb33866040516125409190615a3c565b60405180910390a1505050505050565b600054600160a060020a0316331461256757600080fd5b61256f614fce565b600160a060020a03858116600090815260066020908152604091829020825160808101845281549094168452600180820180548551600261010094831615949094026000190190911692909204601f81018590048502830185019095528482529193858401939192918301828280156126295780601f106125fe57610100808354040283529160200191612629565b820191906000526020600020905b81548152906001019060200180831161260c57829003601f168201915b5050509183525050600282810180546040805160206001841615610100026000190190931694909404601f810183900483028501830190915280845293810193908301828280156126bb5780601f10612690576101008083540402835291602001916126bb565b820191906000526020600020905b81548152906001019060200180831161269e57829003601f168201915b505050918352505060038201805460408051602060026001851615610100026000190190941693909304601f810184900484028201840190925281815293820193929183018282801561274f5780601f106127245761010080835404028352916020019161274f565b820191906000526020600020905b81548152906001019060200180831161273257829003601f168201915b505050919092525050815191925050600160a060020a0316156105df57600080fd5b3361277a61507d565b600160a060020a03821660009081526002602081815260409283902083518154610120601f6000196001841615610100908102919091019093169690960495860185900490940282018401909552938401838152909284928491908401828280156128265780601f106127fb57610100808354040283529160200191612826565b820191906000526020600020905b81548152906001019060200180831161280957829003601f168201915b50505050508152602001600182018054600181600116156101000203166002900480601f0160208091040260200160405190810160405280929190818152602001828054600181600116156101000203166002900480156128c85780601f1061289d576101008083540402835291602001916128c8565b820191906000526020600020905b8154815290600101906020018083116128ab57829003601f168201915b505050918352505060028281015467ffffffffffffffff811660208085019190915268010000000000000000909104600160a060020a031660408085019190915260038501805482516101006001831615026000190190911694909404601f8101849004840285018401909252818452606090940193918301828280156129905780601f1061296557610100808354040283529160200191612990565b820191906000526020600020905b81548152906001019060200180831161297357829003601f168201915b505050918352505060048201805460408051602060026001851615610100026000190190941693909304601f8101849004840282018401909252818152938201939291830182828015612a245780601f106129f957610100808354040283529160200191612a24565b820191906000526020600020905b815481529060010190602001808311612a0757829003601f168201915b5050505050815260200160058201805480602002602001604051908101604052809291908181526020018280548015612a7c57602002820191906000526020600020905b815481526020019060010190808311612a68575b5050505050815260200160068201805480602002602001604051908101604052809291908181526020018280548015612ade57602002820191906000526020600020905b8154600160a060020a03168152600190910190602001808311612ac0575b50505050508152505090506000600160a060020a03168160600151600160a060020a031611612b0c57600080fd5b336000908152600360209081526040808320600160a060020a038716845290915290205461ffff16612b3d57600080fd5b336000818152600360209081526040808320600160a060020a038816808552908352818420805461ffff19169055938352600282528083209383526001909152812060068301549091805b8261ffff168161ffff161015612be05787600160a060020a0316856006018261ffff1681548110612bb557fe5b600091825260209091200154600160a060020a03161415612bd857809150612be0565b600101612b88565b505b6001820361ffff168161ffff161015612c7557836006018160010161ffff1681548110612c0b57fe5b600091825260209091200154600685018054600160a060020a039092169161ffff8416908110612c3757fe5b6000918252602090912001805473ffffffffffffffffffffffffffffffffffffffff1916600160a060020a0392909216919091179055600101612be2565b83600601805480612c8257fe5b6000828152602081208201600019908101805473ffffffffffffffffffffffffffffffffffffffff19169055909101909155600484015492509050805b8261ffff168161ffff161015612d175733600160a060020a0316846004018261ffff1681548110612cec57fe5b600091825260209091200154600160a060020a03161415612d0f57809150612d17565b600101612cbf565b505b6001820361ffff168161ffff161015612dac57826004018160010161ffff1681548110612d4257fe5b600091825260209091200154600484018054600160a060020a039092169161ffff8416908110612d6e57fe5b6000918252602090912001805473ffffffffffffffffffffffffffffffffffffffff1916600160a060020a0392909216919091179055600101612d19565b82600401805480612db957fe5b6000828152602090208101600019908101805473ffffffffffffffffffffffffffffffffffffffff191690550190556040517f212bcbf580385b870fe82b11fdd99334c16d187419727ccfb2b89aea2f87278590612e1c90339086908b90615983565b60405180910390a150505050505050565b600054600160a060020a03163314612e4457600080fd5b612e4c614fce565b600160a060020a03848116600090815260076020908152604091829020825160808101845281549094168452600180820180548551600261010094831615949094026000190190911692909204601f8101859004850283018501909552848252919385840193919291830182828015612f065780601f10612edb57610100808354040283529160200191612f06565b820191906000526020600020905b815481529060010190602001808311612ee957829003601f168201915b5050509183525050600282810180546040805160206001841615610100026000190190931694909404601f81018390048302850183019091528084529381019390830182828015612f985780601f10612f6d57610100808354040283529160200191612f98565b820191906000526020600020905b815481529060010190602001808311612f7b57829003601f168201915b5050505050815260200160048201805480602002602001604051908101604052809291908181526020018280548015612ffa57602002820191906000526020600020905b8154600160a060020a03168152600190910190602001808311612fdc575b505050919092525050815191925050600160a060020a03161561301c57600080fd5b604051806080016040528085600160a060020a03168152602001848152602001838152602001600060405190808252806020026020018201604052801561306d578160200160208202803883390190505b509052600160a060020a0385811660009081526007602090815260409091208351815473ffffffffffffffffffffffffffffffffffffffff191693169290921782558281015180516130c59260018501920190614fff565b50604082015180516130e1916002840191602090910190614fff565b506060820151805161137a916004840191602090910190615165565b600160a060020a038083166000908152600760209081526040808320938516835260038401909152902054600160ff9091161061313957600080fd5b6004810180546001810180835560009283526020808420909201805473ffffffffffffffffffffffffffffffffffffffff1916600160a060020a03969096169586179055938252600390920190915260409020805460ff191660ff90921691909117905550565b3360009081526002602052604090206131b761511e565b33600090815260086020908152604091829020825160a0810184528154600160a060020a038116825274010000000000000000000000000000000000000000900467ffffffffffffffff1681840152600180830180548651600261010094831615949094026000190190911692909204601f810186900486028301860187528083529295939493860193919290918301828280156132965780601f1061326b57610100808354040283529160200191613296565b820191906000526020600020905b81548152906001019060200180831161327957829003601f168201915b5050509183525050600282810180546040805160206001841615610100026000190190931694909404601f810183900483028501830190915280845293810193908301828280156133285780601f106132fd57610100808354040283529160200191613328565b820191906000526020600020905b81548152906001019060200180831161330b57829003601f168201915b50505091835250506003919091015462ffffff166020909101526002830154909150680100000000000000009004600160a060020a03161561336957600080fd5b6000816020015167ffffffffffffffff161161338457600080fd5b60405180610100016040528086815260200182606001518152602001826020015167ffffffffffffffff16815260200133600160a060020a0316815260200184815260200185815260200160006040519080825280602002602001820160405280156133fa578160200160208202803883390190505b508152602001600060405190808252806020026020018201604052801561342b578160200160208202803883390190505b50905233600090815260026020908152604090912082518051919261345592849290910190614fff565b50602082810151805161346e9260018501920190614fff565b5060408201516002820180546060850151600160a060020a031668010000000000000000027fffffffff0000000000000000000000000000000000000000ffffffffffffffff67ffffffffffffffff90941667ffffffffffffffff199092169190911792909216919091179055608082015180516134f6916003840191602090910190614fff565b5060a08201518051613512916004840191602090910190614fff565b5060c0820151805161352e9160058401916020909101906151d3565b5060e0820151805161354a916006840191602090910190615165565b509050507ff0c358f29581a43889abe78660babebd0ac62878d0ed89571af6c2168bbcda0c3360405161357d9190615922565b60405180910390a15050505050565b60008061359761507d565b3360009081526002602081815260409283902083518154610120601f60001960018416156101009081029190910190931696909604958601859004909402820184019095529384018381529092849284919084018282801561363a5780601f1061360f5761010080835404028352916020019161363a565b820191906000526020600020905b81548152906001019060200180831161361d57829003601f168201915b50505050508152602001600182018054600181600116156101000203166002900480601f0160208091040260200160405190810160405280929190818152602001828054600181600116156101000203166002900480156136dc5780601f106136b1576101008083540402835291602001916136dc565b820191906000526020600020905b8154815290600101906020018083116136bf57829003601f168201915b505050918352505060028281015467ffffffffffffffff811660208085019190915268010000000000000000909104600160a060020a031660408085019190915260038501805482516101006001831615026000190190911694909404601f8101849004840285018401909252818452606090940193918301828280156137a45780601f10613779576101008083540402835291602001916137a4565b820191906000526020600020905b81548152906001019060200180831161378757829003601f168201915b505050918352505060048201805460408051602060026001851615610100026000190190941693909304601f81018490048402820184019092528181529382019392918301828280156138385780601f1061380d57610100808354040283529160200191613838565b820191906000526020600020905b81548152906001019060200180831161381b57829003601f168201915b505050505081526020016005820180548060200260200160405190810160405280929190818152602001828054801561389057602002820191906000526020600020905b81548152602001906001019080831161387c575b50505050508152602001600682018054806020026020016040519081016040528092919081815260200182805480156138f257602002820191906000526020600020905b8154600160a060020a031681526001909101906020018083116138d4575b505050505081525050905061390561511e565b33600090815260086020908152604091829020825160a0810184528154600160a060020a038116825274010000000000000000000000000000000000000000900467ffffffffffffffff1681840152600180830180548651600261010094831615949094026000190190911692909204601f810186900486028301860187528083529295939493860193919290918301828280156139e45780601f106139b9576101008083540402835291602001916139e4565b820191906000526020600020905b8154815290600101906020018083116139c757829003601f168201915b5050509183525050600282810180546040805160206001841615610100026000190190931694909404601f81018390048302850183019091528084529381019390830182828015613a765780601f10613a4b57610100808354040283529160200191613a76565b820191906000526020600020905b815481529060010190602001808311613a5957829003601f168201915b50505091835250506003919091015462ffffff1660209182015281015190915067ffffffffffffffff86811691161415613aba575060600151600192509050613ac6565b50606001516000925090505b915091565b60606000606080606033613add6150d5565b600160a060020a0382166000908152600160208181526040928390208351815460029481161561010002600019011693909304601f8101839004909202830160e090810190945260c083018281529293909284929091849190840182828015613b875780601f10613b5c57610100808354040283529160200191613b87565b820191906000526020600020905b815481529060010190602001808311613b6a57829003601f168201915b5050509183525050600182810154600160a060020a0381166020808501919091527401000000000000000000000000000000000000000090910467ffffffffffffffff166040808501919091526002808601805483516101009682161596909602600019011691909104601f810184900484028501840190925281845260609094019391830182828015613c5c5780601f10613c3157610100808354040283529160200191613c5c565b820191906000526020600020905b815481529060010190602001808311613c3f57829003601f168201915b505050918352505060038201805460408051602060026001851615610100026000190190941693909304601f8101849004840282018401909252818152938201939291830182828015613cf05780601f10613cc557610100808354040283529160200191613cf0565b820191906000526020600020905b815481529060010190602001808311613cd357829003601f168201915b5050505050815260200160048201805480602002602001604051908101604052809291908181526020018280548015613d5257602002820191906000526020600020905b8154600160a060020a03168152600190910190602001808311613d34575b50505050508152505090506000600160a060020a03168160200151600160a060020a031611613d8057600080fd5b613d886150d5565b336000908152600160208181526040928390208351815460029481161561010002600019011693909304601f8101839004909202830160e090810190945260c083018281529293909284929091849190840182828015613e295780601f10613dfe57610100808354040283529160200191613e29565b820191906000526020600020905b815481529060010190602001808311613e0c57829003601f168201915b5050509183525050600182810154600160a060020a0381166020808501919091527401000000000000000000000000000000000000000090910467ffffffffffffffff166040808501919091526002808601805483516101009682161596909602600019011691909104601f810184900484028501840190925281845260609094019391830182828015613efe5780601f10613ed357610100808354040283529160200191613efe565b820191906000526020600020905b815481529060010190602001808311613ee157829003601f168201915b505050918352505060038201805460408051602060026001851615610100026000190190941693909304601f8101849004840282018401909252818152938201939291830182828015613f925780601f10613f6757610100808354040283529160200191613f92565b820191906000526020600020905b815481529060010190602001808311613f7557829003601f168201915b5050505050815260200160048201805480602002602001604051908101604052809291908181526020018280548015613ff457602002820191906000526020600020905b8154600160a060020a03168152600190910190602001808311613fd6575b5050509190925250508151602083015160a08401516060850151608090950151929d919c509a50929850965090945050505050565b61403161511e565b600160a060020a03868116600090815260086020908152604091829020825160a081018452815494851681527401000000000000000000000000000000000000000090940467ffffffffffffffff1684830152600180820180548551600261010094831615949094026000190190911692909204601f810185900485028301850186528083529294860193919290918301828280156141115780601f106140e657610100808354040283529160200191614111565b820191906000526020600020905b8154815290600101906020018083116140f457829003601f168201915b5050509183525050600282810180546040805160206001841615610100026000190190931694909404601f810183900483028501830190915280845293810193908301828280156141a35780601f10614178576101008083540402835291602001916141a3565b820191906000526020600020905b81548152906001019060200180831161418657829003601f168201915b50505091835250506003919091015462ffffff1660209182015281015190915067ffffffffffffffff16156141d757600080fd5b6040805160a081018252600160a060020a0388811680835267ffffffffffffffff86811660208086019182528587018c8152606087018c905262ffffff8b1660808801526000948552600882529690932085518154925173ffffffffffffffffffffffffffffffffffffffff199093169516949094177fffffffff0000000000000000ffffffffffffffffffffffffffffffffffffffff1674010000000000000000000000000000000000000000919092160217825592518051929391926112a69260018501920190614fff565b60008054600160a060020a031633146142bd57600080fd5b50600054600160a060020a03165b90565b600060608060606142dd614fce565b3360009081526006602090815260409182902082516080810184528154600160a060020a03168152600180830180548651600261010094831615949094026000190190911692909204601f81018690048602830186019096528582529194929385810193919291908301828280156143965780601f1061436b57610100808354040283529160200191614396565b820191906000526020600020905b81548152906001019060200180831161437957829003601f168201915b5050509183525050600282810180546040805160206001841615610100026000190190931694909404601f810183900483028501830190915280845293810193908301828280156144285780601f106143fd57610100808354040283529160200191614428565b820191906000526020600020905b81548152906001019060200180831161440b57829003601f168201915b505050918352505060038201805460408051602060026001851615610100026000190190941693909304601f81018490048402820184019092528181529382019392918301828280156144bc5780601f10614491576101008083540402835291602001916144bc565b820191906000526020600020905b81548152906001019060200180831161449f57829003601f168201915b505050919092525050815191925050600160a060020a031661458d5780600001516040518060400160405280600581526020017f66616c73650000000000000000000000000000000000000000000000000000008152506040518060400160405280600581526020017f6572726f720000000000000000000000000000000000000000000000000000008152506040518060400160405280600581526020017f6572726f7200000000000000000000000000000000000000000000000000000081525094509450945094505061216c565b805160208201516040830151606090930151919790965091945092509050565b6000806145b86150d5565b336000908152600160208181526040928390208351815460029481161561010002600019011693909304601f8101839004909202830160e090810190945260c0830182815292939092849290918491908401828280156146595780601f1061462e57610100808354040283529160200191614659565b820191906000526020600020905b81548152906001019060200180831161463c57829003601f168201915b5050509183525050600182810154600160a060020a0381166020808501919091527401000000000000000000000000000000000000000090910467ffffffffffffffff166040808501919091526002808601805483516101009682161596909602600019011691909104601f81018490048402850184019092528184526060909401939183018282801561472e5780601f106147035761010080835404028352916020019161472e565b820191906000526020600020905b81548152906001019060200180831161471157829003601f168201915b505050918352505060038201805460408051602060026001851615610100026000190190941693909304601f81018490048402820184019092528181529382019392918301828280156147c25780601f10614797576101008083540402835291602001916147c2565b820191906000526020600020905b8154815290600101906020018083116147a557829003601f168201915b505050505081526020016004820180548060200260200160405190810160405280929190818152602001828054801561482457602002820191906000526020600020905b8154600160a060020a03168152600190910190602001808311614806575b505050505081525050905061483761511e565b33600090815260096020908152604091829020825160a0810184528154600160a060020a038116825274010000000000000000000000000000000000000000900467ffffffffffffffff1681840152600180830180548651600261010094831615949094026000190190911692909204601f810186900486028301860187528083529295939493860193919290918301828280156149165780601f106148eb57610100808354040283529160200191614916565b820191906000526020600020905b8154815290600101906020018083116148f957829003601f168201915b5050509183525050600282810180546040805160206001841615610100026000190190931694909404601f810183900483028501830190915280845293810193908301828280156149a85780601f1061497d576101008083540402835291602001916149a8565b820191906000526020600020905b81548152906001019060200180831161498b57829003601f168201915b50505091835250506003919091015462ffffff1660209182015281015190915067ffffffffffffffff868116911614156149ec575060200151600192509050613ac6565b5060200151600092509050613ac6565b60608060006060614a0b61507d565b600160a060020a03861660009081526002602081815260409283902083518154610120601f600019600184161561010090810291909101909316969096049586018590049094028201840190955293840183815290928492849190840182828015614ab75780601f10614a8c57610100808354040283529160200191614ab7565b820191906000526020600020905b815481529060010190602001808311614a9a57829003601f168201915b50505050508152602001600182018054600181600116156101000203166002900480601f016020809104026020016040519081016040528092919081815260200182805460018160011615610100020316600290048015614b595780601f10614b2e57610100808354040283529160200191614b59565b820191906000526020600020905b815481529060010190602001808311614b3c57829003601f168201915b505050918352505060028281015467ffffffffffffffff811660208085019190915268010000000000000000909104600160a060020a031660408085019190915260038501805482516101006001831615026000190190911694909404601f810184900484028501840190925281845260609094019391830182828015614c215780601f10614bf657610100808354040283529160200191614c21565b820191906000526020600020905b815481529060010190602001808311614c0457829003601f168201915b505050918352505060048201805460408051602060026001851615610100026000190190941693909304601f8101849004840282018401909252818152938201939291830182828015614cb55780601f10614c8a57610100808354040283529160200191614cb5565b820191906000526020600020905b815481529060010190602001808311614c9857829003601f168201915b5050505050815260200160058201805480602002602001604051908101604052809291908181526020018280548015614d0d57602002820191906000526020600020905b815481526020019060010190808311614cf9575b5050505050815260200160068201805480602002602001604051908101604052809291908181526020018280548015614d6f57602002820191906000526020600020905b8154600160a060020a03168152600190910190602001808311614d51575b50505091909252505081516020808401516060850151600160a060020a038c166000908152600584526040808220805482518188028101880190935280835298995095979396509194939192849290919084015b82821015614fb85760008481526020908190206040805160038602909201805460026001821615610100026000190190911604601f8101859004909402830160809081019092526060830184815292939092849290918491840182828015614e6c5780601f10614e4157610100808354040283529160200191614e6c565b820191906000526020600020905b815481529060010190602001808311614e4f57829003601f168201915b50505050508152602001600182018054600181600116156101000203166002900480601f016020809104026020016040519081016040528092919081815260200182805460018160011615610100020316600290048015614f0e5780601f10614ee357610100808354040283529160200191614f0e565b820191906000526020600020905b815481529060010190602001808311614ef157829003601f168201915b5050509183525050600282810180546040805160206001841615610100026000190190931694909404601f81018390048302850183019091528084529381019390830182828015614fa05780601f10614f7557610100808354040283529160200191614fa0565b820191906000526020600020905b815481529060010190602001808311614f8357829003601f168201915b50505050508152505081526020019060010190614dc3565b5050505090509450945094509450509193509193565b60405180608001604052806000600160a060020a031681526020016060815260200160608152602001606081525090565b828054600181600116156101000203166002900490600052602060002090601f016020900481019282601f1061504057805160ff191683800117855561506d565b8280016001018555821561506d579182015b8281111561506d578251825591602001919060010190615052565b5061507992915061520d565b5090565b6040518061010001604052806060815260200160608152602001600067ffffffffffffffff1681526020016000600160a060020a03168152602001606081526020016060815260200160608152602001606081525090565b6040518060c00160405280606081526020016000600160a060020a03168152602001600067ffffffffffffffff1681526020016060815260200160608152602001606081525090565b6040518060a001604052806000600160a060020a03168152602001600067ffffffffffffffff1681526020016060815260200160608152602001600062ffffff1681525090565b8280548282559060005260206000209081019282156151c7579160200282015b828111156151c7578251825473ffffffffffffffffffffffffffffffffffffffff1916600160a060020a03909116178255602090920191600190910190615185565b50615079929150615227565b82805482825590600052602060002090810192821561506d579160200282018281111561506d578251825591602001919060010190615052565b6142cb91905b808211156150795760008155600101615213565b6142cb91905b8082111561507957805473ffffffffffffffffffffffffffffffffffffffff1916815560010161522d565b803561526381615cbc565b92915050565b600082601f83011261527a57600080fd5b813561528d61528882615be8565b615bc1565b915080825260208301602083018583830111156152a957600080fd5b6152b4838284615c76565b50505092915050565b803561526381615cd3565b803561526381615cdc565b6000602082840312156152e557600080fd5b60006152f18484615258565b949350505050565b6000806040838503121561530c57600080fd5b60006153188585615258565b925050602061532985828601615258565b9150509250929050565b60008060006060848603121561534857600080fd5b60006153548686615258565b935050602084013567ffffffffffffffff81111561537157600080fd5b61537d86828701615269565b925050604084013567ffffffffffffffff81111561539a57600080fd5b6153a686828701615269565b9150509250925092565b600080600080608085870312156153c657600080fd5b60006153d28787615258565b945050602085013567ffffffffffffffff8111156153ef57600080fd5b6153fb87828801615269565b935050604085013567ffffffffffffffff81111561541857600080fd5b61542487828801615269565b925050606085013567ffffffffffffffff81111561544157600080fd5b61544d87828801615269565b91505092959194509250565b600080600080600060a0868803121561547157600080fd5b600061547d8888615258565b955050602086013567ffffffffffffffff81111561549a57600080fd5b6154a688828901615269565b945050604086013567ffffffffffffffff8111156154c357600080fd5b6154cf88828901615269565b93505060606154e0888289016152bd565b92505060806154f1888289016152c8565b9150509295509295909350565b60008060006060848603121561551357600080fd5b833567ffffffffffffffff81111561552a57600080fd5b61535486828701615269565b60006020828403121561554857600080fd5b60006152f184846152c8565b60006155608383615596565b505060200190565b600061556083836156bd565b600061558083836158a8565b9392505050565b61559081615c65565b82525050565b61559081615c34565b60006155aa82615c22565b6155b48185615c26565b93506155bf83615c10565b8060005b838110156155ed5781516155d78882615554565b97506155e283615c10565b9250506001016155c3565b509495945050505050565b600061560382615c22565b61560d8185615c26565b935061561883615c10565b8060005b838110156155ed5781516156308882615568565b975061563b83615c10565b92505060010161561c565b600061565182615c22565b61565b8185615c26565b93508360208202850161566d85615c10565b8060005b858110156156a7578484038952815161568a8582615574565b945061569583615c10565b60209a909a0199925050600101615671565b5091979650505050505050565b61559081615c3f565b615590816142cb565b60006156d182615c22565b6156db8185615c26565b93506156eb818560208601615c82565b6156f481615cb2565b9093019392505050565b600061570982615c22565b6157138185615c2f565b9350615723818560208601615c82565b9290920192915050565b60008154600181166000811461574a5760018114615770576157af565b607f600283041661575b8187615c26565b60ff19841681529550506020850192506157af565b6002820461577e8187615c26565b955061578985615c16565b60005b828110156157a85781548882015260019091019060200161578c565b8701945050505b505092915050565b60006157c4601483615c26565b7f5265676973746572656420617320446f63746f72000000000000000000000000815260200192915050565b60006157fd601583615c26565b7f526567697374657265642061732050617469656e740000000000000000000000815260200192915050565b6000615836601883615c26565b7f4772616e7465642061636365737320746f20646f63746f720000000000000000815260200192915050565b600061586f601883615c26565b7f5265766f6b656420616363657373206f6620646f63746f720000000000000000815260200192915050565b6000615263600083615c2f565b80516060808452600091908401906158c082826156c6565b915050602083015184820360208601526158da82826156c6565b915050604083015184820360408601526158f482826156c6565b95945050505050565b600061558082846156fe565b60006152638261589b565b602081016152638284615596565b604081016159308284615587565b8181036020830152615580816157f0565b6080810161594f8286615587565b818103602083015261596081615829565b90508181036040830152615974818561572d565b90506152f16060830184615596565b608081016159918286615587565b818103602083015261596081615862565b608081016159b08287615596565b81810360208301526159c281866156c6565b905081810360408301526159d681856156c6565b905081810360608301526159ea818461559f565b9695505050505050565b60808101615a028287615596565b8181036020830152615a1481866156c6565b90508181036040830152615a2881856156c6565b905081810360608301526159ea81846156c6565b60408101615a4a8284615596565b8181036020830152615580816157b7565b602080825281016155808184615646565b60408101615a7a82856156b4565b6155806020830184615596565b60a08082528101615a9881886156c6565b9050615aa76020830187615596565b8181036040830152615ab9818661559f565b90508181036060830152615acd81856156c6565b90508181036080830152615ae181846156c6565b979650505050505050565b60e08082528101615afd818a6156c6565b9050615b0c6020830189615596565b8181036040830152615b1e81886156c6565b90508181036060830152615b3281876155f8565b90508181036080830152615b46818661559f565b905081810360a0830152615b5a81856156c6565b905081810360c0830152615b6e81846156c6565b9998505050505050505050565b60808082528101615b8c81876156c6565b90508181036020830152615ba081866156c6565b9050615baf6040830185615596565b81810360608301526159ea8184615646565b60405181810167ffffffffffffffff81118282101715615be057600080fd5b604052919050565b600067ffffffffffffffff821115615bff57600080fd5b506020601f91909101601f19160190565b60200190565b60009081526020902090565b5190565b90815260200190565b919050565b600061526382615c44565b151590565b600160a060020a031690565b62ffffff1690565b67ffffffffffffffff1690565b600061526382600061526382615c34565b82818337506000910152565b60005b83811015615c9d578181015183820152602001615c85565b83811115615cac576000848401525b50505050565b601f01601f191690565b615cc581615c34565b8114615cd057600080fd5b50565b615cc581615c50565b615cc581615c5856fea365627a7a72315820066fe396dc4abb76910a651d333ef95e407f25c1b13cd63e1ddb963b1fee93106c6578706572696d656e74616cf564736f6c63430005110040",
  "source": "pragma solidity >=0.4.21 <0.7.0;\npragma experimental ABIEncoderV2;\n\n\ncontract optimized_healthCare {\n\n  address private admin;\n  mapping (address => doctor) private doctors;\n  \n  mapping (address => patient) private patients; //mapping patients to their addresses\n  mapping (address => mapping (address => uint16)) private patientToDoctor; //patients and list of doctors allowed access to\n  mapping (address => mapping (bytes32 => uint16)) private patientToFile; //files mapped to patients\n  mapping (address => files[]) private patientFiles;\n  mapping (address => hospital) private hospitals;\n  mapping (address => insuranceComp) insuranceCompanies;\n  // mapping (address => doctorAddedFiles[]) private doctorAddedPatientFiles;\n  // mapping (address => doctorOfferedConsultation[]) private doctorOfferedConsultationList;\n  mapping (address => adhaar) patient_adhaar_info;\n  mapping (address => adhaar) doctor_adhaar_info;\n\n\n  struct adhaar{\n    address id;\n    uint64 adhaar_number;\n    string name;\n    string DOB;\n    uint24 pincode;\n  }\n\n  //structure of patient file\n  struct files{\n      string file_name;\n      string file_type;\n      string file_hash;\n  }\n  \n  //structure of hospital\n  struct hospital{\n    address id;  \n    string name;\n    string location;\n    string license;\n  }\n  \n  //structure of Insurance companies\n  struct insuranceComp{\n    address id;  \n    string name;\n    string complicense;\n    mapping (address => uint8) regPatientsMapping;\n    address[] regPatients;\n  }\n  \n\n  //structure of patient info\n  struct patient {\n    string name;\n    string DOB;\n    uint64 adhaar_number;\n    address id;\n    string gender;\n    string contact_info;\n\n    bytes32[] files;// hashes of file that belong to this user for display purpose\n    address[] doctor_list;\n  }\n  \n \n  //structure of doctor info\n  struct doctor {\n      string name;\n      address id;\n      uint64 adhaar_number;\n      string contact;\n      string specialization;\n      address[] patient_list;\n  }\n\n  //setting the Admin\n  constructor() public {\n    admin = 0x7a8D093A81350f33c15aCa293E3e1d546Bf30Cc5;\n  }\n  \n  //verify doctor \n  modifier checkDoctor(address id) {\n    doctor memory d = doctors[id];\n    require(d.id > address(0x0));//check if doctor exist\n    _;\n  }\n  \n  //verify patient\n  modifier checkPatient(address id) {\n    patient memory p = patients[id];\n    require(p.id > address(0x0));//check if patient exist\n    _;\n  }\n\n \n  //Admin verification modifier\n  modifier onlyAdmin() {\n    require(msg.sender == admin);\n    _;\n  }\n   \n\n\n  function hospitalSignUp(address _id, string memory _name, string memory _location,string memory _license ) public onlyAdmin() {\n    \n    hospital memory h= hospitals[_id];\n    require(!(h.id > address(0x0)));\n    require(keccak256(abi.encodePacked(_name)) != keccak256(\"\"));\n    hospitals[_id] = hospital({id:_id, name:_name, location: _location,license: _license});\n  }\n\n  //Event to emit when new patient registers\n  event patientSignUp( address _patient, string message);\n\n  function signupPatient(string memory _name, string memory _contact, string memory _gender) public {\n\n    //search for patient on blockchain by address \n    patient storage p = patients[msg.sender];\n    adhaar memory a = patient_adhaar_info[msg.sender];\n    //Check if the patient already exists by address\n    require(!(p.id > address(0x0)));\n    //Add patient to blockchain\n    require(a.adhaar_number > 0);\n\n    patients[msg.sender] = patient({name:_name, DOB: a.DOB, id:msg.sender, adhaar_number: a.adhaar_number, gender:_gender, contact_info:_contact, files:new bytes32[](0), doctor_list:new address[](0)});\n    \n\n    emit patientSignUp( msg.sender, \"Registered as Patient\");\n  }\n  \n\n  //Event to emit when new doctor registers\n  event doctorSignUp(address _doctor, string message);\n\n  function signupDoctor(address _id, string memory _name, string memory _contact, string memory _specialization) public {\n\n      //search for doctor on blockchain\n      doctor storage d = doctors[_id];\n      adhaar memory a = doctor_adhaar_info[_id];\n      //check name of doctor\n      require(keccak256(abi.encodePacked(_name)) != keccak256(\"\"));\n      //check if doctor already exists\n      require(!(d.id > address(0x0)));\n\n      require(a.adhaar_number > 0);\n      //Add the doctor to blockchain\n      doctors[_id] = doctor({name:_name, id:_id, contact:_contact, adhaar_number: a.adhaar_number, specialization: _specialization, patient_list:new address[](0)});\n     \n      emit doctorSignUp(_id, \"Registered as Doctor\");\n  }\n\n\n  //Event to emit when patient grants access to doctor\n  event grantDoctorAccess( address patient_address, string message, string _doctor, address doctor_address);\n  \n  function grantAccessToDoctor(address doctor_id) public checkPatient(msg.sender) checkDoctor(doctor_id) {\n      \n      patient storage p = patients[msg.sender];\n      doctor storage d = doctors[doctor_id];\n      require(patientToDoctor[msg.sender][doctor_id] < 1);// this means doctor already been access\n      \n      uint16 pos = (uint16)(p.doctor_list.push(doctor_id));// new length of array\n      \n      patientToDoctor[msg.sender][doctor_id] = pos;\n      d.patient_list.push(msg.sender);\n\n   \n      \n      emit grantDoctorAccess( msg.sender , \"Granted access to doctor\", d.name , doctor_id);\n  }\n\n  //Event to emit when patient revokes a doctor's access\n  event revokeDoctorAccess(address patient_address, string message, string _doctor, address doctor_address);\n\n  function revokeAccessFromDoctor(address doctor_id) public checkPatient(msg.sender){\n    require(patientToDoctor[msg.sender][doctor_id] > 0);\n    patientToDoctor[msg.sender][doctor_id] = 0;\n\n\n    patient storage p = patients[msg.sender];\n    doctor storage d = doctors[doctor_id];\n\n    uint16 pdlength= (uint16)(p.doctor_list.length);\n    uint16 pos=0;\n\n    for (uint16 i = 0; i < pdlength; i++) {\n      if(p.doctor_list[i] == doctor_id)\n      {\n        pos=i;\n        break;\n      }\n    }\n\n    for(;pos<pdlength-1;pos++)\n    {\n      p.doctor_list[pos]= p.doctor_list[pos+1];\n    }\n\n    p.doctor_list.pop();\n\n    pdlength= (uint16)(d.patient_list.length);\n    pos=0;\n\n    for (uint16 i = 0; i < pdlength; i++) {\n      if(d.patient_list[i] == msg.sender)\n      {\n        pos=i;\n        break;\n      }\n    }\n\n    for(;pos<pdlength-1;pos++)\n    {\n      d.patient_list[pos]= d.patient_list[pos+1];\n    }\n\n    d.patient_list.pop();\n\n    emit revokeDoctorAccess(msg.sender, \"Revoked access of doctor\", d.name, doctor_id);\n  }\n  \n\n\n  function addUserFiles(string memory _file_name, string memory _file_type,string memory _file_hash) public{\n\n    patientFiles[msg.sender].push(files({file_name:_file_name, file_type:_file_type,file_hash:_file_hash}));\n\n  }\n\n\n  function getUserFiles(address sender)public view returns(files[] memory){\n      return patientFiles[sender];\n  }\n\n\n\n  function getPatientInfo() public view checkPatient(msg.sender) returns(string memory,address, string memory, bytes32[] memory , address[] memory, string memory, string memory) {\n      \n    patient memory p = patients[msg.sender];\n    return (p.name, p.id, p.DOB, p.files, p.doctor_list, p.gender, p.contact_info );\n  }\n\n\n\n  function getDoctorInfo() public view checkDoctor(msg.sender) returns(string memory, address, address[] memory, string memory, string memory) {\n      doctor memory d = doctors[msg.sender];\n\n      return (d.name, d.id, d.patient_list, d.contact, d.specialization);\n  }\n  \n  function checkDoctorInfo(uint64 _adhaar_number) public view returns(bool, address) {\n    \n    doctor memory d = doctors[msg.sender];\n    adhaar memory a = doctor_adhaar_info[msg.sender];\n   \n   if (a.adhaar_number == _adhaar_number){\n      return (true, d.id);\n    }\n\n    else \n      return (false, d.id);\n  }\n\n  function checkPatientInfo(uint64 _adhaar_number) public view returns(bool, address) {\n    patient memory p = patients[msg.sender];\n    adhaar memory a = patient_adhaar_info[msg.sender];\n    if (a.adhaar_number == _adhaar_number){\n      return (true,p.id);\n    }\n\n    else \n      return (false,p.id);\n\n  }\n  \n  \n  function getPatientInfoForDoctor(address pat) public view returns(string memory, string memory, address, files[] memory){\n      patient memory p = patients[pat];\n      return (p.name, p.DOB, p.id, patientFiles[pat]);\n    }\n\n   \n\n  function getHospitalInfo() public view returns(address, string memory, string memory,string memory)\n  {\n    hospital memory h = hospitals[msg.sender];\n    if(h.id == 0x0000000000000000000000000000000000000000)\n    {\n      return (h.id,\"false\",\"error\",\"error\");\n    }\n    return (h.id, h.name, h.location,h.license);\n  }\n\n  function getAdminInfo() public view  onlyAdmin() returns(address)\n  {\n    return (admin);\n  }\n\n  function hospitalGrantAccess(address _user, address _patient) public checkPatient(_patient)\n  {\n    doctor storage d = doctors[_user];\n    patient storage p = patients[_patient];\n    if(d.id > address(0x0))\n    {\n      require(patientToDoctor[_patient][_user] < 1);// this means doctor already been access\n      \n      uint16 pos = (uint16)(p.doctor_list.push(_user));// new length of array\n      \n      patientToDoctor[_patient][_user] = pos;\n      d.patient_list.push(_patient);    \n    }\n  }\n\n  function addHospital(address _id, string memory _name, string memory _location, string memory _license) public onlyAdmin(){\n    hospital memory h = hospitals[_id];\n    require(!(h.id > address(0x0)));\n    hospitals[_id] = hospital({id:_id, name:_name, location:_location,license: _license});\n  }\n \n  function regInsuranceComp(address _id, string memory _name, string memory _complicense) public onlyAdmin() {\n    insuranceComp memory i= insuranceCompanies[_id];\n    require(!(i.id> address(0x0)));\n    insuranceCompanies[_id] = insuranceComp({id:_id, name:_name,complicense:_complicense, regPatients: new address[](0)});\n  } \n\n  function getInsuranceCompInfo() public view returns(address,string memory, string memory, address[] memory){\n    insuranceComp memory i= insuranceCompanies[msg.sender];\n    return(i.id,i.name,i.complicense, i.regPatients);\n  }\n\n  function addPatientToInsuranceComp(address _insuranceComp, address _pat) public{\n    insuranceComp storage i = insuranceCompanies[_insuranceComp];\n    require(i.regPatientsMapping[_pat]<1);\n    uint8 pos=(uint8)(i.regPatients.push(_pat));\n    i.regPatientsMapping[_pat]=pos;\n  }\n\n\n\n  function addDoctorAdhaarInfo(address _doc, string memory _name, string memory _DOB, uint24 _pincode, uint64 _adhaar_number) public {\n    adhaar memory a = doctor_adhaar_info[_doc];\n    require(a.adhaar_number == 0);\n    doctor_adhaar_info[_doc] = adhaar({id:_doc, pincode: _pincode, name: _name, DOB: _DOB, adhaar_number: _adhaar_number});\n  }\n\n  function addPatientAdhaarInfo(address _pat, string memory _name, string memory _DOB, uint24 _pincode, uint64 _adhaar_number) public {\n    adhaar memory a = patient_adhaar_info[_pat];\n    require(a.adhaar_number == 0);\n    patient_adhaar_info[_pat] = adhaar({id:_pat, pincode: _pincode, name: _name, DOB: _DOB, adhaar_number: _adhaar_number});\n  }\n  \n}",
  "sourcePath": "/home/rootzain/miniproject/contracts/optimized_healthCare.sol",
  "compiler": {
    "name": "solc",
    "version": "0.5.17+commit.d19bba13.Emscripten.clang"
  },
  "schemaVersion": "3.0.23",
  "updatedAt": "2022-07-03T12:15:12.999Z",
  "networkType": "ethereum",
  "devdoc": {
    "methods": {}
  },
  "userdoc": {
    "methods": {}
  }
}