{
  "contractName": "optimized_healthCare",
  "abi": [
    {
      "inputs": [],
      "payable": false,
      "stateMutability": "nonpayable",
      "type": "constructor"
    },
    {
      "anonymous": false,
      "inputs": [
        {
          "indexed": false,
          "internalType": "address",
          "name": "_doctor",
          "type": "address"
        },
        {
          "indexed": false,
          "internalType": "string",
          "name": "message",
          "type": "string"
        }
      ],
      "name": "doctorSignUp",
      "type": "event"
    },
    {
      "anonymous": false,
      "inputs": [
        {
          "indexed": false,
          "internalType": "address",
          "name": "patient_address",
          "type": "address"
        },
        {
          "indexed": false,
          "internalType": "string",
          "name": "message",
          "type": "string"
        },
        {
          "indexed": false,
          "internalType": "string",
          "name": "_doctor",
          "type": "string"
        },
        {
          "indexed": false,
          "internalType": "address",
          "name": "doctor_address",
          "type": "address"
        }
      ],
      "name": "grantDoctorAccess",
      "type": "event"
    },
    {
      "anonymous": false,
      "inputs": [
        {
          "indexed": false,
          "internalType": "address",
          "name": "_patient",
          "type": "address"
        },
        {
          "indexed": false,
          "internalType": "string",
          "name": "message",
          "type": "string"
        }
      ],
      "name": "patientSignUp",
      "type": "event"
    },
    {
      "anonymous": false,
      "inputs": [
        {
          "indexed": false,
          "internalType": "address",
          "name": "patient_address",
          "type": "address"
        },
        {
          "indexed": false,
          "internalType": "string",
          "name": "message",
          "type": "string"
        },
        {
          "indexed": false,
          "internalType": "string",
          "name": "_doctor",
          "type": "string"
        },
        {
          "indexed": false,
          "internalType": "address",
          "name": "doctor_address",
          "type": "address"
        }
      ],
      "name": "revokeDoctorAccess",
      "type": "event"
    },
    {
      "constant": false,
      "inputs": [
        {
          "internalType": "address",
          "name": "_id",
          "type": "address"
        },
        {
          "internalType": "string",
          "name": "_name",
          "type": "string"
        },
        {
          "internalType": "string",
          "name": "_location",
          "type": "string"
        },
        {
          "internalType": "string",
          "name": "_license",
          "type": "string"
        }
      ],
      "name": "hospitalSignUp",
      "outputs": [],
      "payable": false,
      "stateMutability": "nonpayable",
      "type": "function"
    },
    {
      "constant": false,
      "inputs": [
        {
          "internalType": "string",
          "name": "_name",
          "type": "string"
        },
        {
          "internalType": "string",
          "name": "_contact",
          "type": "string"
        },
        {
          "internalType": "string",
          "name": "_gender",
          "type": "string"
        }
      ],
      "name": "signupPatient",
      "outputs": [],
      "payable": false,
      "stateMutability": "nonpayable",
      "type": "function"
    },
    {
      "constant": false,
      "inputs": [
        {
          "internalType": "address",
          "name": "_id",
          "type": "address"
        },
        {
          "internalType": "string",
          "name": "_name",
          "type": "string"
        },
        {
          "internalType": "string",
          "name": "_contact",
          "type": "string"
        },
        {
          "internalType": "string",
          "name": "_specialization",
          "type": "string"
        }
      ],
      "name": "signupDoctor",
      "outputs": [],
      "payable": false,
      "stateMutability": "nonpayable",
      "type": "function"
    },
    {
      "constant": false,
      "inputs": [
        {
          "internalType": "address",
          "name": "doctor_id",
          "type": "address"
        }
      ],
      "name": "grantAccessToDoctor",
      "outputs": [],
      "payable": false,
      "stateMutability": "nonpayable",
      "type": "function"
    },
    {
      "constant": false,
      "inputs": [
        {
          "internalType": "address",
          "name": "doctor_id",
          "type": "address"
        }
      ],
      "name": "revokeAccessFromDoctor",
      "outputs": [],
      "payable": false,
      "stateMutability": "nonpayable",
      "type": "function"
    },
    {
      "constant": false,
      "inputs": [
        {
          "internalType": "string",
          "name": "_file_name",
          "type": "string"
        },
        {
          "internalType": "string",
          "name": "_file_type",
          "type": "string"
        },
        {
          "internalType": "string",
          "name": "_file_hash",
          "type": "string"
        }
      ],
      "name": "addUserFiles",
      "outputs": [],
      "payable": false,
      "stateMutability": "nonpayable",
      "type": "function"
    },
    {
      "constant": true,
      "inputs": [
        {
          "internalType": "address",
          "name": "sender",
          "type": "address"
        }
      ],
      "name": "getUserFiles",
      "outputs": [
        {
          "components": [
            {
              "internalType": "string",
              "name": "file_name",
              "type": "string"
            },
            {
              "internalType": "string",
              "name": "file_type",
              "type": "string"
            },
            {
              "internalType": "string",
              "name": "file_hash",
              "type": "string"
            }
          ],
          "internalType": "struct optimized_healthCare.files[]",
          "name": "",
          "type": "tuple[]"
        }
      ],
      "payable": false,
      "stateMutability": "view",
      "type": "function"
    },
    {
      "constant": true,
      "inputs": [],
      "name": "getPatientInfo",
      "outputs": [
        {
          "internalType": "string",
          "name": "",
          "type": "string"
        },
        {
          "internalType": "address",
          "name": "",
          "type": "address"
        },
        {
          "internalType": "string",
          "name": "",
          "type": "string"
        },
        {
          "internalType": "bytes32[]",
          "name": "",
          "type": "bytes32[]"
        },
        {
          "internalType": "address[]",
          "name": "",
          "type": "address[]"
        },
        {
          "internalType": "string",
          "name": "",
          "type": "string"
        },
        {
          "internalType": "string",
          "name": "",
          "type": "string"
        }
      ],
      "payable": false,
      "stateMutability": "view",
      "type": "function"
    },
    {
      "constant": true,
      "inputs": [],
      "name": "getDoctorInfo",
      "outputs": [
        {
          "internalType": "string",
          "name": "",
          "type": "string"
        },
        {
          "internalType": "address",
          "name": "",
          "type": "address"
        },
        {
          "internalType": "address[]",
          "name": "",
          "type": "address[]"
        },
        {
          "internalType": "string",
          "name": "",
          "type": "string"
        },
        {
          "internalType": "string",
          "name": "",
          "type": "string"
        }
      ],
      "payable": false,
      "stateMutability": "view",
      "type": "function"
    },
    {
      "constant": true,
      "inputs": [
        {
          "internalType": "uint64",
          "name": "_adhaar_number",
          "type": "uint64"
        }
      ],
      "name": "checkDoctorInfo",
      "outputs": [
        {
          "internalType": "bool",
          "name": "",
          "type": "bool"
        },
        {
          "internalType": "address",
          "name": "",
          "type": "address"
        }
      ],
      "payable": false,
      "stateMutability": "view",
      "type": "function"
    },
    {
      "constant": true,
      "inputs": [
        {
          "internalType": "uint64",
          "name": "_adhaar_number",
          "type": "uint64"
        }
      ],
      "name": "checkPatientInfo",
      "outputs": [
        {
          "internalType": "bool",
          "name": "",
          "type": "bool"
        },
        {
          "internalType": "address",
          "name": "",
          "type": "address"
        }
      ],
      "payable": false,
      "stateMutability": "view",
      "type": "function"
    },
    {
      "constant": true,
      "inputs": [
        {
          "internalType": "address",
          "name": "pat",
          "type": "address"
        }
      ],
      "name": "getPatientInfoForDoctor",
      "outputs": [
        {
          "internalType": "string",
          "name": "",
          "type": "string"
        },
        {
          "internalType": "string",
          "name": "",
          "type": "string"
        },
        {
          "internalType": "address",
          "name": "",
          "type": "address"
        },
        {
          "components": [
            {
              "internalType": "string",
              "name": "file_name",
              "type": "string"
            },
            {
              "internalType": "string",
              "name": "file_type",
              "type": "string"
            },
            {
              "internalType": "string",
              "name": "file_hash",
              "type": "string"
            }
          ],
          "internalType": "struct optimized_healthCare.files[]",
          "name": "",
          "type": "tuple[]"
        }
      ],
      "payable": false,
      "stateMutability": "view",
      "type": "function"
    },
    {
      "constant": true,
      "inputs": [],
      "name": "getHospitalInfo",
      "outputs": [
        {
          "internalType": "address",
          "name": "",
          "type": "address"
        },
        {
          "internalType": "string",
          "name": "",
          "type": "string"
        },
        {
          "internalType": "string",
          "name": "",
          "type": "string"
        },
        {
          "internalType": "string",
          "name": "",
          "type": "string"
        }
      ],
      "payable": false,
      "stateMutability": "view",
      "type": "function"
    },
    {
      "constant": true,
      "inputs": [],
      "name": "getAdminInfo",
      "outputs": [
        {
          "internalType": "address",
          "name": "",
          "type": "address"
        }
      ],
      "payable": false,
      "stateMutability": "view",
      "type": "function"
    },
    {
      "constant": false,
      "inputs": [
        {
          "internalType": "address",
          "name": "_user",
          "type": "address"
        },
        {
          "internalType": "address",
          "name": "_patient",
          "type": "address"
        }
      ],
      "name": "hospitalGrantAccess",
      "outputs": [],
      "payable": false,
      "stateMutability": "nonpayable",
      "type": "function"
    },
    {
      "constant": false,
      "inputs": [
        {
          "internalType": "address",
          "name": "_id",
          "type": "address"
        },
        {
          "internalType": "string",
          "name": "_name",
          "type": "string"
        },
        {
          "internalType": "string",
          "name": "_location",
          "type": "string"
        },
        {
          "internalType": "string",
          "name": "_license",
          "type": "string"
        }
      ],
      "name": "addHospital",
      "outputs": [],
      "payable": false,
      "stateMutability": "nonpayable",
      "type": "function"
    },
    {
      "constant": false,
      "inputs": [
        {
          "internalType": "address",
          "name": "_id",
          "type": "address"
        },
        {
          "internalType": "string",
          "name": "_name",
          "type": "string"
        }
      ],
      "name": "regInsuranceComp",
      "outputs": [],
      "payable": false,
      "stateMutability": "nonpayable",
      "type": "function"
    },
    {
      "constant": true,
      "inputs": [],
      "name": "getInsuranceCompInfo",
      "outputs": [
        {
          "internalType": "address",
          "name": "",
          "type": "address"
        },
        {
          "internalType": "string",
          "name": "",
          "type": "string"
        },
        {
          "internalType": "address[]",
          "name": "",
          "type": "address[]"
        }
      ],
      "payable": false,
      "stateMutability": "view",
      "type": "function"
    },
    {
      "constant": false,
      "inputs": [
        {
          "internalType": "address",
          "name": "_insuranceComp",
          "type": "address"
        },
        {
          "internalType": "address",
          "name": "_pat",
          "type": "address"
        }
      ],
      "name": "addPatientToInsuranceComp",
      "outputs": [],
      "payable": false,
      "stateMutability": "nonpayable",
      "type": "function"
    },
    {
      "constant": false,
      "inputs": [
        {
          "internalType": "address",
          "name": "_doc",
          "type": "address"
        },
        {
          "internalType": "string",
          "name": "_name",
          "type": "string"
        },
        {
          "internalType": "string",
          "name": "_DOB",
          "type": "string"
        },
        {
          "internalType": "uint24",
          "name": "_pincode",
          "type": "uint24"
        },
        {
          "internalType": "uint64",
          "name": "_adhaar_number",
          "type": "uint64"
        }
      ],
      "name": "addDoctorAdhaarInfo",
      "outputs": [],
      "payable": false,
      "stateMutability": "nonpayable",
      "type": "function"
    },
    {
      "constant": false,
      "inputs": [
        {
          "internalType": "address",
          "name": "_pat",
          "type": "address"
        },
        {
          "internalType": "string",
          "name": "_name",
          "type": "string"
        },
        {
          "internalType": "string",
          "name": "_DOB",
          "type": "string"
        },
        {
          "internalType": "uint24",
          "name": "_pincode",
          "type": "uint24"
        },
        {
          "internalType": "uint64",
          "name": "_adhaar_number",
          "type": "uint64"
        }
      ],
      "name": "addPatientAdhaarInfo",
      "outputs": [],
      "payable": false,
      "stateMutability": "nonpayable",
      "type": "function"
    }
  ],
  "bytecode": "0x608060405234801561001057600080fd5b5060008054600160a060020a03191673eeef95fdbe8f64ee73068170a631fbd95d257553179055615bea80620000476000396000f3fe608060405234801561001057600080fd5b5060043610610194576000357c010000000000000000000000000000000000000000000000000000000090048063629e559d116100f5578063b380f5c6116100a9578063c4fa7adb11610083578063c4fa7adb14610329578063c981893014610341578063fe59cc1a1461035457610194565b8063b380f5c6146102e8578063b609af2614610301578063c3d5fd391461031457610194565b806397f7f06d116100da57806397f7f06d146102a1578063ab9cff18146102b4578063ae2ed42f146102c757610194565b8063629e559d1461027b578063859287b11461028e57610194565b80632cecb5231161014c5780633b17c592116101315780633b17c5921461023e578063405b8af0146102555780635a13dcd61461026857610194565b80632cecb52314610210578063326df6641461022357610194565b80631fc379221161017d5780631fc37922146101c15780631fd4be9b146101ea5780632ae48e40146101fd57610194565b80630ab10841146101995780631c8e251c146101ae575b600080fd5b6101ac6101a736600461522a565b610377565b005b6101ac6101bc366004615182565b610695565b6101d46101cf366004615182565b610df1565b6040516101e1919061591d565b60405180910390f35b6101ac6101f83660046152d3565b611029565b6101ac61020b366004615378565b6112eb565b6101ac61021e3660046151a8565b611382565b61022b611822565b6040516101e197969594939291906159ae565b610246611f86565b6040516101e193929190615878565b6101ac61026336600461522a565b6120d2565b6101ac61027636600461522a565b6124b0565b6101ac610289366004615182565b6126d1565b6101ac61029c3660046151e2565b612d8d565b6101ac6102af3660046151a8565b612f7f565b6101ac6102c2366004615378565b613022565b6102da6102d536600461540c565b61340e565b6040516101e192919061592e565b6102f061394d565b6040516101e1959493929190615949565b6101ac61030f3660046152d3565b613eab565b61031c614127565b6040516101e191906157ea565b610331614150565b6040516101e194939291906158ac565b6102da61034f36600461540c565b614432565b610367610362366004615182565b614881565b6040516101e19493929190615a3d565b600054600160a060020a0316331461038e57600080fd5b610396614e53565b600160a060020a03858116600090815260066020908152604091829020825160808101845281549094168452600180820180548551600261010094831615949094026000190190911692909204601f81018590048502830185019095528482529193858401939192918301828280156104505780601f1061042557610100808354040283529160200191610450565b820191906000526020600020905b81548152906001019060200180831161043357829003601f168201915b5050509183525050600282810180546040805160206001841615610100026000190190931694909404601f810183900483028501830190915280845293810193908301828280156104e25780601f106104b7576101008083540402835291602001916104e2565b820191906000526020600020905b8154815290600101906020018083116104c557829003601f168201915b505050918352505060038201805460408051602060026001851615610100026000190190941693909304601f81018490048402820184019092528181529382019392918301828280156105765780601f1061054b57610100808354040283529160200191610576565b820191906000526020600020905b81548152906001019060200180831161055957829003601f168201915b505050919092525050815191925050600160a060020a03161561059857600080fd5b6040516105a4906157df565b6040518091039020846040516020016105bd91906157d3565b6040516020818303038152906040528051906020012014156105de57600080fd5b60408051608081018252600160a060020a03878116808352602080840189815284860189905260608501889052600092835260068252949091208351815473ffffffffffffffffffffffffffffffffffffffff1916931692909217825592518051929391926106539260018501920190614e84565b506040820151805161066f916002840191602090910190614e84565b506060820151805161068b916003840191602090910190614e84565b5050505050505050565b3361069e614f02565b600160a060020a03821660009081526002602081815260409283902083518154610120601f60001960018416156101009081029190910190931696909604958601859004909402820184019095529384018381529092849284919084018282801561074a5780601f1061071f5761010080835404028352916020019161074a565b820191906000526020600020905b81548152906001019060200180831161072d57829003601f168201915b50505050508152602001600182018054600181600116156101000203166002900480601f0160208091040260200160405190810160405280929190818152602001828054600181600116156101000203166002900480156107ec5780601f106107c1576101008083540402835291602001916107ec565b820191906000526020600020905b8154815290600101906020018083116107cf57829003601f168201915b505050918352505060028281015467ffffffffffffffff811660208085019190915268010000000000000000909104600160a060020a031660408085019190915260038501805482516101006001831615026000190190911694909404601f8101849004840285018401909252818452606090940193918301828280156108b45780601f10610889576101008083540402835291602001916108b4565b820191906000526020600020905b81548152906001019060200180831161089757829003601f168201915b505050918352505060048201805460408051602060026001851615610100026000190190941693909304601f81018490048402820184019092528181529382019392918301828280156109485780601f1061091d57610100808354040283529160200191610948565b820191906000526020600020905b81548152906001019060200180831161092b57829003601f168201915b50505050508152602001600582018054806020026020016040519081016040528092919081815260200182805480156109a057602002820191906000526020600020905b81548152602001906001019080831161098c575b5050505050815260200160068201805480602002602001604051908101604052809291908181526020018280548015610a0257602002820191906000526020600020905b8154600160a060020a031681526001909101906020018083116109e4575b50505050508152505090506000600160a060020a03168160600151600160a060020a031611610a3057600080fd5b82610a39614f5a565b600160a060020a0382166000908152600160208181526040928390208351815460029481161561010002600019011693909304601f8101839004909202830160e090810190945260c083018281529293909284929091849190840182828015610ae35780601f10610ab857610100808354040283529160200191610ae3565b820191906000526020600020905b815481529060010190602001808311610ac657829003601f168201915b5050509183525050600182810154600160a060020a0381166020808501919091527401000000000000000000000000000000000000000090910467ffffffffffffffff166040808501919091526002808601805483516101009682161596909602600019011691909104601f810184900484028501840190925281845260609094019391830182828015610bb85780601f10610b8d57610100808354040283529160200191610bb8565b820191906000526020600020905b815481529060010190602001808311610b9b57829003601f168201915b505050918352505060038201805460408051602060026001851615610100026000190190941693909304601f8101849004840282018401909252818152938201939291830182828015610c4c5780601f10610c2157610100808354040283529160200191610c4c565b820191906000526020600020905b815481529060010190602001808311610c2f57829003601f168201915b5050505050815260200160048201805480602002602001604051908101604052809291908181526020018280548015610cae57602002820191906000526020600020905b8154600160a060020a03168152600190910190602001808311610c90575b50505050508152505090506000600160a060020a03168160200151600160a060020a031611610cdc57600080fd5b336000818152600260209081526040808320600160a060020a038a16808552600180855283862096865260038552838620918652935292205491929161ffff1610610d2657600080fd5b600682018054600180820180845560009384526020808520909301805473ffffffffffffffffffffffffffffffffffffffff19908116600160a060020a038e1690811790925533808752600386526040808820938852928652828720805461ffff191661ffff8616179055600488018054958601815587529490952090920180549094168317909355517fe239c4e608cb32aaf8ef7214f811e28ea27c91cad9f719be74579c18fc2e983191610ddf9185908c90615817565b60405180910390a15050505050505050565b600160a060020a0381166000908152600560209081526040808320805482518185028101850190935280835260609492939192909184015b8282101561101e5760008481526020908190206040805160038602909201805460026001821615610100026000190190911604601f8101859004909402830160809081019092526060830184815292939092849290918491840182828015610ed25780601f10610ea757610100808354040283529160200191610ed2565b820191906000526020600020905b815481529060010190602001808311610eb557829003601f168201915b50505050508152602001600182018054600181600116156101000203166002900480601f016020809104026020016040519081016040528092919081815260200182805460018160011615610100020316600290048015610f745780601f10610f4957610100808354040283529160200191610f74565b820191906000526020600020905b815481529060010190602001808311610f5757829003601f168201915b5050509183525050600282810180546040805160206001841615610100026000190190931694909404601f810183900483028501830190915280845293810193908301828280156110065780601f10610fdb57610100808354040283529160200191611006565b820191906000526020600020905b815481529060010190602001808311610fe957829003601f168201915b50505050508152505081526020019060010190610e29565b505050509050919050565b611031614fa3565b600160a060020a03868116600090815260096020908152604091829020825160a081018452815494851681527401000000000000000000000000000000000000000090940467ffffffffffffffff1684830152600180820180548551600261010094831615949094026000190190911692909204601f810185900485028301850186528083529294860193919290918301828280156111115780601f106110e657610100808354040283529160200191611111565b820191906000526020600020905b8154815290600101906020018083116110f457829003601f168201915b5050509183525050600282810180546040805160206001841615610100026000190190931694909404601f810183900483028501830190915280845293810193908301828280156111a35780601f10611178576101008083540402835291602001916111a3565b820191906000526020600020905b81548152906001019060200180831161118657829003601f168201915b50505091835250506003919091015462ffffff1660209182015281015190915067ffffffffffffffff16156111d757600080fd5b6040805160a081018252600160a060020a0388811680835267ffffffffffffffff86811660208086019182528587018c8152606087018c905262ffffff8b1660808801526000948552600982529690932085518154925173ffffffffffffffffffffffffffffffffffffffff199093169516949094177fffffffff0000000000000000ffffffffffffffffffffffffffffffffffffffff1674010000000000000000000000000000000000000000919092160217825592518051929391926112a59260018501920190614e84565b50606082015180516112c1916002840191602090910190614e84565b50608091909101516003909101805462ffffff191662ffffff909216919091179055505050505050565b336000908152600560209081526040808320815160608101835287815280840187905291820185905280546001810180835591855293839020825180519295939460039094029091019261134492849290910190614e84565b50602082810151805161135d9260018501920190614e84565b5060408201518051611379916002840191602090910190614e84565b50505050505050565b8061138b614f02565b600160a060020a03821660009081526002602081815260409283902083518154610120601f6000196001841615610100908102919091019093169690960495860185900490940282018401909552938401838152909284928491908401828280156114375780601f1061140c57610100808354040283529160200191611437565b820191906000526020600020905b81548152906001019060200180831161141a57829003601f168201915b50505050508152602001600182018054600181600116156101000203166002900480601f0160208091040260200160405190810160405280929190818152602001828054600181600116156101000203166002900480156114d95780601f106114ae576101008083540402835291602001916114d9565b820191906000526020600020905b8154815290600101906020018083116114bc57829003601f168201915b505050918352505060028281015467ffffffffffffffff811660208085019190915268010000000000000000909104600160a060020a031660408085019190915260038501805482516101006001831615026000190190911694909404601f8101849004840285018401909252818452606090940193918301828280156115a15780601f10611576576101008083540402835291602001916115a1565b820191906000526020600020905b81548152906001019060200180831161158457829003601f168201915b505050918352505060048201805460408051602060026001851615610100026000190190941693909304601f81018490048402820184019092528181529382019392918301828280156116355780601f1061160a57610100808354040283529160200191611635565b820191906000526020600020905b81548152906001019060200180831161161857829003601f168201915b505050505081526020016005820180548060200260200160405190810160405280929190818152602001828054801561168d57602002820191906000526020600020905b815481526020019060010190808311611679575b50505050508152602001600682018054806020026020016040519081016040528092919081815260200182805480156116ef57602002820191906000526020600020905b8154600160a060020a031681526001909101906020018083116116d1575b50505050508152505090506000600160a060020a03168160600151600160a060020a03161161171d57600080fd5b600160a060020a038085166000908152600160208181526040808420888616855260029092529092209082015491929091161561181a57600160a060020a038086166000908152600360209081526040808320938a1683529290522054600161ffff9091161061178c57600080fd5b6006810180546001818101808455600093845260208085209093018054600160a060020a03808d1673ffffffffffffffffffffffffffffffffffffffff1992831681179093558b16808752600386526040808820938852928652918620805461ffff90941661ffff199094169390931790925560048701805493840181558552929093200180549092161790555b505050505050565b60606000606080606080606033611837614f02565b600160a060020a03821660009081526002602081815260409283902083518154610120601f6000196001841615610100908102919091019093169690960495860185900490940282018401909552938401838152909284928491908401828280156118e35780601f106118b8576101008083540402835291602001916118e3565b820191906000526020600020905b8154815290600101906020018083116118c657829003601f168201915b50505050508152602001600182018054600181600116156101000203166002900480601f0160208091040260200160405190810160405280929190818152602001828054600181600116156101000203166002900480156119855780601f1061195a57610100808354040283529160200191611985565b820191906000526020600020905b81548152906001019060200180831161196857829003601f168201915b505050918352505060028281015467ffffffffffffffff811660208085019190915268010000000000000000909104600160a060020a031660408085019190915260038501805482516101006001831615026000190190911694909404601f810184900484028501840190925281845260609094019391830182828015611a4d5780601f10611a2257610100808354040283529160200191611a4d565b820191906000526020600020905b815481529060010190602001808311611a3057829003601f168201915b505050918352505060048201805460408051602060026001851615610100026000190190941693909304601f8101849004840282018401909252818152938201939291830182828015611ae15780601f10611ab657610100808354040283529160200191611ae1565b820191906000526020600020905b815481529060010190602001808311611ac457829003601f168201915b5050505050815260200160058201805480602002602001604051908101604052809291908181526020018280548015611b3957602002820191906000526020600020905b815481526020019060010190808311611b25575b5050505050815260200160068201805480602002602001604051908101604052809291908181526020018280548015611b9b57602002820191906000526020600020905b8154600160a060020a03168152600190910190602001808311611b7d575b50505050508152505090506000600160a060020a03168160600151600160a060020a031611611bc957600080fd5b611bd1614f02565b3360009081526002602081815260409283902083518154610120601f600019600184161561010090810291909101909316969096049586018590049094028201840190955293840183815290928492849190840182828015611c745780601f10611c4957610100808354040283529160200191611c74565b820191906000526020600020905b815481529060010190602001808311611c5757829003601f168201915b50505050508152602001600182018054600181600116156101000203166002900480601f016020809104026020016040519081016040528092919081815260200182805460018160011615610100020316600290048015611d165780601f10611ceb57610100808354040283529160200191611d16565b820191906000526020600020905b815481529060010190602001808311611cf957829003601f168201915b505050918352505060028281015467ffffffffffffffff811660208085019190915268010000000000000000909104600160a060020a031660408085019190915260038501805482516101006001831615026000190190911694909404601f810184900484028501840190925281845260609094019391830182828015611dde5780601f10611db357610100808354040283529160200191611dde565b820191906000526020600020905b815481529060010190602001808311611dc157829003601f168201915b505050918352505060048201805460408051602060026001851615610100026000190190941693909304601f8101849004840282018401909252818152938201939291830182828015611e725780601f10611e4757610100808354040283529160200191611e72565b820191906000526020600020905b815481529060010190602001808311611e5557829003601f168201915b5050505050815260200160058201805480602002602001604051908101604052809291908181526020018280548015611eca57602002820191906000526020600020905b815481526020019060010190808311611eb6575b5050505050815260200160068201805480602002602001604051908101604052809291908181526020018280548015611f2c57602002820191906000526020600020905b8154600160a060020a03168152600190910190602001808311611f0e575b50505050508152505090508060000151816060015182602001518360c001518460e0015185608001518660a00151869650849450839350829250819150809050995099509950995099509950995050505090919293949596565b6000606080611f93614fea565b3360009081526007602090815260409182902082516060810184528154600160a060020a03168152600180830180548651600261010094831615949094026000190190911692909204601f810186900486028301860190965285825291949293858101939192919083018282801561204c5780601f106120215761010080835404028352916020019161204c565b820191906000526020600020905b81548152906001019060200180831161202f57829003601f168201915b50505050508152602001600382018054806020026020016040519081016040528092919081815260200182805480156120ae57602002820191906000526020600020905b8154600160a060020a03168152600190910190602001808311612090575b50505091909252505081516020830151604090930151909792965094509092505050565b600160a060020a03841660009081526001602052604090206120f2614fa3565b600160a060020a03868116600090815260096020908152604091829020825160a081018452815494851681527401000000000000000000000000000000000000000090940467ffffffffffffffff1684830152600180820180548551600261010094831615949094026000190190911692909204601f810185900485028301850186528083529294860193919290918301828280156121d25780601f106121a7576101008083540402835291602001916121d2565b820191906000526020600020905b8154815290600101906020018083116121b557829003601f168201915b5050509183525050600282810180546040805160206001841615610100026000190190931694909404601f810183900483028501830190915280845293810193908301828280156122645780601f1061223957610100808354040283529160200191612264565b820191906000526020600020905b81548152906001019060200180831161224757829003601f168201915b50505091835250506003919091015462ffffff1660209091015260405190915061228d906157df565b6040518091039020856040516020016122a691906157d3565b6040516020818303038152906040528051906020012014156122c757600080fd5b6001820154600160a060020a0316156122df57600080fd5b6000816020015167ffffffffffffffff16116122fa57600080fd5b6040518060c0016040528086815260200187600160a060020a03168152602001826020015167ffffffffffffffff1681526020018581526020018481526020016000604051908082528060200260200182016040528015612365578160200160208202803883390190505b509052600160a060020a038716600090815260016020908152604090912082518051919261239892849290910190614e84565b50602082810151600183018054604086015167ffffffffffffffff1674010000000000000000000000000000000000000000027fffffffff0000000000000000ffffffffffffffffffffffffffffffffffffffff600160a060020a0390941673ffffffffffffffffffffffffffffffffffffffff199092169190911792909216919091179055606083015180516124359260028501920190614e84565b5060808201518051612451916003840191602090910190614e84565b5060a0820151805161246d916004840191602090910190615014565b509050507fdd0aa1d3beead09f31cc046643e0d63829e7c7f43e532c2523d978bc9c3bfb33866040516124a091906158fe565b60405180910390a1505050505050565b600054600160a060020a031633146124c757600080fd5b6124cf614e53565b600160a060020a03858116600090815260066020908152604091829020825160808101845281549094168452600180820180548551600261010094831615949094026000190190911692909204601f81018590048502830185019095528482529193858401939192918301828280156125895780601f1061255e57610100808354040283529160200191612589565b820191906000526020600020905b81548152906001019060200180831161256c57829003601f168201915b5050509183525050600282810180546040805160206001841615610100026000190190931694909404601f8101839004830285018301909152808452938101939083018282801561261b5780601f106125f05761010080835404028352916020019161261b565b820191906000526020600020905b8154815290600101906020018083116125fe57829003601f168201915b505050918352505060038201805460408051602060026001851615610100026000190190941693909304601f81018490048402820184019092528181529382019392918301828280156126af5780601f10612684576101008083540402835291602001916126af565b820191906000526020600020905b81548152906001019060200180831161269257829003601f168201915b505050919092525050815191925050600160a060020a0316156105de57600080fd5b336126da614f02565b600160a060020a03821660009081526002602081815260409283902083518154610120601f6000196001841615610100908102919091019093169690960495860185900490940282018401909552938401838152909284928491908401828280156127865780601f1061275b57610100808354040283529160200191612786565b820191906000526020600020905b81548152906001019060200180831161276957829003601f168201915b50505050508152602001600182018054600181600116156101000203166002900480601f0160208091040260200160405190810160405280929190818152602001828054600181600116156101000203166002900480156128285780601f106127fd57610100808354040283529160200191612828565b820191906000526020600020905b81548152906001019060200180831161280b57829003601f168201915b505050918352505060028281015467ffffffffffffffff811660208085019190915268010000000000000000909104600160a060020a031660408085019190915260038501805482516101006001831615026000190190911694909404601f8101849004840285018401909252818452606090940193918301828280156128f05780601f106128c5576101008083540402835291602001916128f0565b820191906000526020600020905b8154815290600101906020018083116128d357829003601f168201915b505050918352505060048201805460408051602060026001851615610100026000190190941693909304601f81018490048402820184019092528181529382019392918301828280156129845780601f1061295957610100808354040283529160200191612984565b820191906000526020600020905b81548152906001019060200180831161296757829003601f168201915b50505050508152602001600582018054806020026020016040519081016040528092919081815260200182805480156129dc57602002820191906000526020600020905b8154815260200190600101908083116129c8575b5050505050815260200160068201805480602002602001604051908101604052809291908181526020018280548015612a3e57602002820191906000526020600020905b8154600160a060020a03168152600190910190602001808311612a20575b50505050508152505090506000600160a060020a03168160600151600160a060020a031611612a6c57600080fd5b336000908152600360209081526040808320600160a060020a038716845290915290205461ffff16612a9d57600080fd5b336000818152600360209081526040808320600160a060020a038816808552908352818420805461ffff19169055938352600282528083209383526001909152812060068301549091805b8261ffff168161ffff161015612b405787600160a060020a0316856006018261ffff1681548110612b1557fe5b600091825260209091200154600160a060020a03161415612b3857809150612b40565b600101612ae8565b505b6001820361ffff168161ffff161015612bd557836006018160010161ffff1681548110612b6b57fe5b600091825260209091200154600685018054600160a060020a039092169161ffff8416908110612b9757fe5b6000918252602090912001805473ffffffffffffffffffffffffffffffffffffffff1916600160a060020a0392909216919091179055600101612b42565b83600601805480612be257fe5b6000828152602081208201600019908101805473ffffffffffffffffffffffffffffffffffffffff19169055909101909155600484015492509050805b8261ffff168161ffff161015612c775733600160a060020a0316846004018261ffff1681548110612c4c57fe5b600091825260209091200154600160a060020a03161415612c6f57809150612c77565b600101612c1f565b505b6001820361ffff168161ffff161015612d0c57826004018160010161ffff1681548110612ca257fe5b600091825260209091200154600484018054600160a060020a039092169161ffff8416908110612cce57fe5b6000918252602090912001805473ffffffffffffffffffffffffffffffffffffffff1916600160a060020a0392909216919091179055600101612c79565b82600401805480612d1957fe5b6000828152602090208101600019908101805473ffffffffffffffffffffffffffffffffffffffff191690550190556040517f212bcbf580385b870fe82b11fdd99334c16d187419727ccfb2b89aea2f87278590612d7c90339086908b90615859565b60405180910390a150505050505050565b600054600160a060020a03163314612da457600080fd5b612dac614fea565b600160a060020a03838116600090815260076020908152604091829020825160608101845281549094168452600180820180548551600261010094831615949094026000190190911692909204601f8101859004850283018501909552848252919385840193919291830182828015612e665780601f10612e3b57610100808354040283529160200191612e66565b820191906000526020600020905b815481529060010190602001808311612e4957829003601f168201915b5050505050815260200160038201805480602002602001604051908101604052809291908181526020018280548015612ec857602002820191906000526020600020905b8154600160a060020a03168152600190910190602001808311612eaa575b505050919092525050815191925050600160a060020a031615612eea57600080fd5b60408051606081018252600160a060020a0385811680835260208084018781528551600080825281840188528688019190915292835260078252949091208351815473ffffffffffffffffffffffffffffffffffffffff191693169290921782559251805192939192612f639260018501920190614e84565b506040820151805161181a916003840191602090910190615014565b600160a060020a038083166000908152600760209081526040808320938516835260028401909152902054600160ff90911610612fbb57600080fd5b6003810180546001810180835560009283526020808420909201805473ffffffffffffffffffffffffffffffffffffffff1916600160a060020a03969096169586179055938252600290920190915260409020805460ff191660ff90921691909117905550565b336000908152600260205260409020613039614fa3565b33600090815260086020908152604091829020825160a0810184528154600160a060020a038116825274010000000000000000000000000000000000000000900467ffffffffffffffff1681840152600180830180548651600261010094831615949094026000190190911692909204601f810186900486028301860187528083529295939493860193919290918301828280156131185780601f106130ed57610100808354040283529160200191613118565b820191906000526020600020905b8154815290600101906020018083116130fb57829003601f168201915b5050509183525050600282810180546040805160206001841615610100026000190190931694909404601f810183900483028501830190915280845293810193908301828280156131aa5780601f1061317f576101008083540402835291602001916131aa565b820191906000526020600020905b81548152906001019060200180831161318d57829003601f168201915b50505091835250506003919091015462ffffff166020909101526002830154909150680100000000000000009004600160a060020a0316156131eb57600080fd5b6000816020015167ffffffffffffffff161161320657600080fd5b60405180610100016040528086815260200182606001518152602001826020015167ffffffffffffffff16815260200133600160a060020a03168152602001848152602001858152602001600060405190808252806020026020018201604052801561327c578160200160208202803883390190505b50815260200160006040519080825280602002602001820160405280156132ad578160200160208202803883390190505b5090523360009081526002602090815260409091208251805191926132d792849290910190614e84565b5060208281015180516132f09260018501920190614e84565b5060408201516002820180546060850151600160a060020a031668010000000000000000027fffffffff0000000000000000000000000000000000000000ffffffffffffffff67ffffffffffffffff90941667ffffffffffffffff19909216919091179290921691909117905560808201518051613378916003840191602090910190614e84565b5060a08201518051613394916004840191602090910190614e84565b5060c082015180516133b0916005840191602090910190615082565b5060e082015180516133cc916006840191602090910190615014565b509050507ff0c358f29581a43889abe78660babebd0ac62878d0ed89571af6c2168bbcda0c336040516133ff91906157f8565b60405180910390a15050505050565b600080613419614f02565b3360009081526002602081815260409283902083518154610120601f6000196001841615610100908102919091019093169690960495860185900490940282018401909552938401838152909284928491908401828280156134bc5780601f10613491576101008083540402835291602001916134bc565b820191906000526020600020905b81548152906001019060200180831161349f57829003601f168201915b50505050508152602001600182018054600181600116156101000203166002900480601f01602080910402602001604051908101604052809291908181526020018280546001816001161561010002031660029004801561355e5780601f106135335761010080835404028352916020019161355e565b820191906000526020600020905b81548152906001019060200180831161354157829003601f168201915b505050918352505060028281015467ffffffffffffffff811660208085019190915268010000000000000000909104600160a060020a031660408085019190915260038501805482516101006001831615026000190190911694909404601f8101849004840285018401909252818452606090940193918301828280156136265780601f106135fb57610100808354040283529160200191613626565b820191906000526020600020905b81548152906001019060200180831161360957829003601f168201915b505050918352505060048201805460408051602060026001851615610100026000190190941693909304601f81018490048402820184019092528181529382019392918301828280156136ba5780601f1061368f576101008083540402835291602001916136ba565b820191906000526020600020905b81548152906001019060200180831161369d57829003601f168201915b505050505081526020016005820180548060200260200160405190810160405280929190818152602001828054801561371257602002820191906000526020600020905b8154815260200190600101908083116136fe575b505050505081526020016006820180548060200260200160405190810160405280929190818152602001828054801561377457602002820191906000526020600020905b8154600160a060020a03168152600190910190602001808311613756575b5050505050815250509050613787614fa3565b33600090815260086020908152604091829020825160a0810184528154600160a060020a038116825274010000000000000000000000000000000000000000900467ffffffffffffffff1681840152600180830180548651600261010094831615949094026000190190911692909204601f810186900486028301860187528083529295939493860193919290918301828280156138665780601f1061383b57610100808354040283529160200191613866565b820191906000526020600020905b81548152906001019060200180831161384957829003601f168201915b5050509183525050600282810180546040805160206001841615610100026000190190931694909404601f810183900483028501830190915280845293810193908301828280156138f85780601f106138cd576101008083540402835291602001916138f8565b820191906000526020600020905b8154815290600101906020018083116138db57829003601f168201915b50505091835250506003919091015462ffffff1660209182015281015190915067ffffffffffffffff8681169116141561393c575060600151600192509050613948565b50606001516000925090505b915091565b6060600060608060603361395f614f5a565b600160a060020a0382166000908152600160208181526040928390208351815460029481161561010002600019011693909304601f8101839004909202830160e090810190945260c083018281529293909284929091849190840182828015613a095780601f106139de57610100808354040283529160200191613a09565b820191906000526020600020905b8154815290600101906020018083116139ec57829003601f168201915b5050509183525050600182810154600160a060020a0381166020808501919091527401000000000000000000000000000000000000000090910467ffffffffffffffff166040808501919091526002808601805483516101009682161596909602600019011691909104601f810184900484028501840190925281845260609094019391830182828015613ade5780601f10613ab357610100808354040283529160200191613ade565b820191906000526020600020905b815481529060010190602001808311613ac157829003601f168201915b505050918352505060038201805460408051602060026001851615610100026000190190941693909304601f8101849004840282018401909252818152938201939291830182828015613b725780601f10613b4757610100808354040283529160200191613b72565b820191906000526020600020905b815481529060010190602001808311613b5557829003601f168201915b5050505050815260200160048201805480602002602001604051908101604052809291908181526020018280548015613bd457602002820191906000526020600020905b8154600160a060020a03168152600190910190602001808311613bb6575b50505050508152505090506000600160a060020a03168160200151600160a060020a031611613c0257600080fd5b613c0a614f5a565b336000908152600160208181526040928390208351815460029481161561010002600019011693909304601f8101839004909202830160e090810190945260c083018281529293909284929091849190840182828015613cab5780601f10613c8057610100808354040283529160200191613cab565b820191906000526020600020905b815481529060010190602001808311613c8e57829003601f168201915b5050509183525050600182810154600160a060020a0381166020808501919091527401000000000000000000000000000000000000000090910467ffffffffffffffff166040808501919091526002808601805483516101009682161596909602600019011691909104601f810184900484028501840190925281845260609094019391830182828015613d805780601f10613d5557610100808354040283529160200191613d80565b820191906000526020600020905b815481529060010190602001808311613d6357829003601f168201915b505050918352505060038201805460408051602060026001851615610100026000190190941693909304601f8101849004840282018401909252818152938201939291830182828015613e145780601f10613de957610100808354040283529160200191613e14565b820191906000526020600020905b815481529060010190602001808311613df757829003601f168201915b5050505050815260200160048201805480602002602001604051908101604052809291908181526020018280548015613e7657602002820191906000526020600020905b8154600160a060020a03168152600190910190602001808311613e58575b5050509190925250508151602083015160a08401516060850151608090950151929d919c509a50929850965090945050505050565b613eb3614fa3565b600160a060020a03868116600090815260086020908152604091829020825160a081018452815494851681527401000000000000000000000000000000000000000090940467ffffffffffffffff1684830152600180820180548551600261010094831615949094026000190190911692909204601f81018590048502830185018652808352929486019391929091830182828015613f935780601f10613f6857610100808354040283529160200191613f93565b820191906000526020600020905b815481529060010190602001808311613f7657829003601f168201915b5050509183525050600282810180546040805160206001841615610100026000190190931694909404601f810183900483028501830190915280845293810193908301828280156140255780601f10613ffa57610100808354040283529160200191614025565b820191906000526020600020905b81548152906001019060200180831161400857829003601f168201915b50505091835250506003919091015462ffffff1660209182015281015190915067ffffffffffffffff161561405957600080fd5b6040805160a081018252600160a060020a0388811680835267ffffffffffffffff86811660208086019182528587018c8152606087018c905262ffffff8b1660808801526000948552600882529690932085518154925173ffffffffffffffffffffffffffffffffffffffff199093169516949094177fffffffff0000000000000000ffffffffffffffffffffffffffffffffffffffff1674010000000000000000000000000000000000000000919092160217825592518051929391926112a59260018501920190614e84565b60008054600160a060020a0316331461413f57600080fd5b50600054600160a060020a03165b90565b6000606080606061415f614e53565b3360009081526006602090815260409182902082516080810184528154600160a060020a03168152600180830180548651600261010094831615949094026000190190911692909204601f81018690048602830186019096528582529194929385810193919291908301828280156142185780601f106141ed57610100808354040283529160200191614218565b820191906000526020600020905b8154815290600101906020018083116141fb57829003601f168201915b5050509183525050600282810180546040805160206001841615610100026000190190931694909404601f810183900483028501830190915280845293810193908301828280156142aa5780601f1061427f576101008083540402835291602001916142aa565b820191906000526020600020905b81548152906001019060200180831161428d57829003601f168201915b505050918352505060038201805460408051602060026001851615610100026000190190941693909304601f810184900484028201840190925281815293820193929183018282801561433e5780601f106143135761010080835404028352916020019161433e565b820191906000526020600020905b81548152906001019060200180831161432157829003601f168201915b505050919092525050815191925050600160a060020a031661440f5780600001516040518060400160405280600581526020017f66616c73650000000000000000000000000000000000000000000000000000008152506040518060400160405280600581526020017f6572726f720000000000000000000000000000000000000000000000000000008152506040518060400160405280600581526020017f6572726f7200000000000000000000000000000000000000000000000000000081525094509450945094505061442c565b805160208201516040830151606090930151919650945090925090505b90919293565b60008061443d614f5a565b336000908152600160208181526040928390208351815460029481161561010002600019011693909304601f8101839004909202830160e090810190945260c0830182815292939092849290918491908401828280156144de5780601f106144b3576101008083540402835291602001916144de565b820191906000526020600020905b8154815290600101906020018083116144c157829003601f168201915b5050509183525050600182810154600160a060020a0381166020808501919091527401000000000000000000000000000000000000000090910467ffffffffffffffff166040808501919091526002808601805483516101009682161596909602600019011691909104601f8101849004840285018401909252818452606090940193918301828280156145b35780601f10614588576101008083540402835291602001916145b3565b820191906000526020600020905b81548152906001019060200180831161459657829003601f168201915b505050918352505060038201805460408051602060026001851615610100026000190190941693909304601f81018490048402820184019092528181529382019392918301828280156146475780601f1061461c57610100808354040283529160200191614647565b820191906000526020600020905b81548152906001019060200180831161462a57829003601f168201915b50505050508152602001600482018054806020026020016040519081016040528092919081815260200182805480156146a957602002820191906000526020600020905b8154600160a060020a0316815260019091019060200180831161468b575b50505050508152505090506146bc614fa3565b33600090815260096020908152604091829020825160a0810184528154600160a060020a038116825274010000000000000000000000000000000000000000900467ffffffffffffffff1681840152600180830180548651600261010094831615949094026000190190911692909204601f8101869004860283018601875280835292959394938601939192909183018282801561479b5780601f106147705761010080835404028352916020019161479b565b820191906000526020600020905b81548152906001019060200180831161477e57829003601f168201915b5050509183525050600282810180546040805160206001841615610100026000190190931694909404601f8101839004830285018301909152808452938101939083018282801561482d5780601f106148025761010080835404028352916020019161482d565b820191906000526020600020905b81548152906001019060200180831161481057829003601f168201915b50505091835250506003919091015462ffffff1660209182015281015190915067ffffffffffffffff86811691161415614871575060200151600192509050613948565b5060200151600092509050613948565b60608060006060614890614f02565b600160a060020a03861660009081526002602081815260409283902083518154610120601f60001960018416156101009081029190910190931696909604958601859004909402820184019095529384018381529092849284919084018282801561493c5780601f106149115761010080835404028352916020019161493c565b820191906000526020600020905b81548152906001019060200180831161491f57829003601f168201915b50505050508152602001600182018054600181600116156101000203166002900480601f0160208091040260200160405190810160405280929190818152602001828054600181600116156101000203166002900480156149de5780601f106149b3576101008083540402835291602001916149de565b820191906000526020600020905b8154815290600101906020018083116149c157829003601f168201915b505050918352505060028281015467ffffffffffffffff811660208085019190915268010000000000000000909104600160a060020a031660408085019190915260038501805482516101006001831615026000190190911694909404601f810184900484028501840190925281845260609094019391830182828015614aa65780601f10614a7b57610100808354040283529160200191614aa6565b820191906000526020600020905b815481529060010190602001808311614a8957829003601f168201915b505050918352505060048201805460408051602060026001851615610100026000190190941693909304601f8101849004840282018401909252818152938201939291830182828015614b3a5780601f10614b0f57610100808354040283529160200191614b3a565b820191906000526020600020905b815481529060010190602001808311614b1d57829003601f168201915b5050505050815260200160058201805480602002602001604051908101604052809291908181526020018280548015614b9257602002820191906000526020600020905b815481526020019060010190808311614b7e575b5050505050815260200160068201805480602002602001604051908101604052809291908181526020018280548015614bf457602002820191906000526020600020905b8154600160a060020a03168152600190910190602001808311614bd6575b50505091909252505081516020808401516060850151600160a060020a038c166000908152600584526040808220805482518188028101880190935280835298995095979396509194939192849290919084015b82821015614e3d5760008481526020908190206040805160038602909201805460026001821615610100026000190190911604601f8101859004909402830160809081019092526060830184815292939092849290918491840182828015614cf15780601f10614cc657610100808354040283529160200191614cf1565b820191906000526020600020905b815481529060010190602001808311614cd457829003601f168201915b50505050508152602001600182018054600181600116156101000203166002900480601f016020809104026020016040519081016040528092919081815260200182805460018160011615610100020316600290048015614d935780601f10614d6857610100808354040283529160200191614d93565b820191906000526020600020905b815481529060010190602001808311614d7657829003601f168201915b5050509183525050600282810180546040805160206001841615610100026000190190931694909404601f81018390048302850183019091528084529381019390830182828015614e255780601f10614dfa57610100808354040283529160200191614e25565b820191906000526020600020905b815481529060010190602001808311614e0857829003601f168201915b50505050508152505081526020019060010190614c48565b5050505090509450945094509450509193509193565b60405180608001604052806000600160a060020a031681526020016060815260200160608152602001606081525090565b828054600181600116156101000203166002900490600052602060002090601f016020900481019282601f10614ec557805160ff1916838001178555614ef2565b82800160010185558215614ef2579182015b82811115614ef2578251825591602001919060010190614ed7565b50614efe9291506150bc565b5090565b6040518061010001604052806060815260200160608152602001600067ffffffffffffffff1681526020016000600160a060020a03168152602001606081526020016060815260200160608152602001606081525090565b6040518060c00160405280606081526020016000600160a060020a03168152602001600067ffffffffffffffff1681526020016060815260200160608152602001606081525090565b6040518060a001604052806000600160a060020a03168152602001600067ffffffffffffffff1681526020016060815260200160608152602001600062ffffff1681525090565b60405180606001604052806000600160a060020a0316815260200160608152602001606081525090565b828054828255906000526020600020908101928215615076579160200282015b82811115615076578251825473ffffffffffffffffffffffffffffffffffffffff1916600160a060020a03909116178255602090920191600190910190615034565b50614efe9291506150d6565b828054828255906000526020600020908101928215614ef25791602002820182811115614ef2578251825591602001919060010190614ed7565b61414d91905b80821115614efe57600081556001016150c2565b61414d91905b80821115614efe57805473ffffffffffffffffffffffffffffffffffffffff191681556001016150dc565b803561511281615b7e565b92915050565b600082601f83011261512957600080fd5b813561513c61513782615aaa565b615a83565b9150808252602083016020830185838301111561515857600080fd5b615163838284615b38565b50505092915050565b803561511281615b95565b803561511281615b9e565b60006020828403121561519457600080fd5b60006151a08484615107565b949350505050565b600080604083850312156151bb57600080fd5b60006151c78585615107565b92505060206151d885828601615107565b9150509250929050565b600080604083850312156151f557600080fd5b60006152018585615107565b925050602083013567ffffffffffffffff81111561521e57600080fd5b6151d885828601615118565b6000806000806080858703121561524057600080fd5b600061524c8787615107565b945050602085013567ffffffffffffffff81111561526957600080fd5b61527587828801615118565b935050604085013567ffffffffffffffff81111561529257600080fd5b61529e87828801615118565b925050606085013567ffffffffffffffff8111156152bb57600080fd5b6152c787828801615118565b91505092959194509250565b600080600080600060a086880312156152eb57600080fd5b60006152f78888615107565b955050602086013567ffffffffffffffff81111561531457600080fd5b61532088828901615118565b945050604086013567ffffffffffffffff81111561533d57600080fd5b61534988828901615118565b935050606061535a8882890161516c565b925050608061536b88828901615177565b9150509295509295909350565b60008060006060848603121561538d57600080fd5b833567ffffffffffffffff8111156153a457600080fd5b6153b086828701615118565b935050602084013567ffffffffffffffff8111156153cd57600080fd5b6153d986828701615118565b925050604084013567ffffffffffffffff8111156153f657600080fd5b61540286828701615118565b9150509250925092565b60006020828403121561541e57600080fd5b60006151a08484615177565b6000615436838361546c565b505060200190565b60006154368383615593565b6000615456838361577e565b9392505050565b61546681615b27565b82525050565b61546681615af6565b600061548082615ae4565b61548a8185615ae8565b935061549583615ad2565b8060005b838110156154c35781516154ad888261542a565b97506154b883615ad2565b925050600101615499565b509495945050505050565b60006154d982615ae4565b6154e38185615ae8565b93506154ee83615ad2565b8060005b838110156154c3578151615506888261543e565b975061551183615ad2565b9250506001016154f2565b600061552782615ae4565b6155318185615ae8565b93508360208202850161554385615ad2565b8060005b8581101561557d5784840389528151615560858261544a565b945061556b83615ad2565b60209a909a0199925050600101615547565b5091979650505050505050565b61546681615b01565b6154668161414d565b60006155a782615ae4565b6155b18185615ae8565b93506155c1818560208601615b44565b6155ca81615b74565b9093019392505050565b60006155df82615ae4565b6155e98185615af1565b93506155f9818560208601615b44565b9290920192915050565b600081546001811660008114615620576001811461564657615685565b607f60028304166156318187615ae8565b60ff1984168152955050602085019250615685565b600282046156548187615ae8565b955061565f85615ad8565b60005b8281101561567e57815488820152600190910190602001615662565b8701945050505b505092915050565b600061569a601483615ae8565b7f5265676973746572656420617320446f63746f72000000000000000000000000815260200192915050565b60006156d3601583615ae8565b7f526567697374657265642061732050617469656e740000000000000000000000815260200192915050565b600061570c601883615ae8565b7f4772616e7465642061636365737320746f20646f63746f720000000000000000815260200192915050565b6000615745601883615ae8565b7f5265766f6b656420616363657373206f6620646f63746f720000000000000000815260200192915050565b6000615112600083615af1565b8051606080845260009190840190615796828261559c565b915050602083015184820360208601526157b0828261559c565b915050604083015184820360408601526157ca828261559c565b95945050505050565b600061545682846155d4565b600061511282615771565b60208101615112828461546c565b60408101615806828461545d565b8181036020830152615456816156c6565b60808101615825828661545d565b8181036020830152615836816156ff565b9050818103604083015261584a8185615603565b90506151a0606083018461546c565b60808101615867828661545d565b818103602083015261583681615738565b60608101615886828661546c565b8181036020830152615898818561559c565b905081810360408301526157ca8184615475565b608081016158ba828761546c565b81810360208301526158cc818661559c565b905081810360408301526158e0818561559c565b905081810360608301526158f4818461559c565b9695505050505050565b6040810161590c828461546c565b81810360208301526154568161568d565b60208082528101615456818461551c565b6040810161593c828561558a565b615456602083018461546c565b60a0808252810161595a818861559c565b9050615969602083018761546c565b818103604083015261597b8186615475565b9050818103606083015261598f818561559c565b905081810360808301526159a3818461559c565b979650505050505050565b60e080825281016159bf818a61559c565b90506159ce602083018961546c565b81810360408301526159e0818861559c565b905081810360608301526159f481876154ce565b90508181036080830152615a088186615475565b905081810360a0830152615a1c818561559c565b905081810360c0830152615a30818461559c565b9998505050505050505050565b60808082528101615a4e818761559c565b90508181036020830152615a62818661559c565b9050615a71604083018561546c565b81810360608301526158f4818461551c565b60405181810167ffffffffffffffff81118282101715615aa257600080fd5b604052919050565b600067ffffffffffffffff821115615ac157600080fd5b506020601f91909101601f19160190565b60200190565b60009081526020902090565b5190565b90815260200190565b919050565b600061511282615b06565b151590565b600160a060020a031690565b62ffffff1690565b67ffffffffffffffff1690565b600061511282600061511282615af6565b82818337506000910152565b60005b83811015615b5f578181015183820152602001615b47565b83811115615b6e576000848401525b50505050565b601f01601f191690565b615b8781615af6565b8114615b9257600080fd5b50565b615b8781615b12565b615b8781615b1a56fea365627a7a723158200db3766ce60aba2d97813da2bdc1748169fbd7b92c310b118d01a97d21b474336c6578706572696d656e74616cf564736f6c63430005110040",
  "source": "pragma solidity >=0.4.21 <0.7.0;\npragma experimental ABIEncoderV2;\n\n\ncontract optimized_healthCare {\n\n  address private Admin;\n  mapping (address => doctor) private doctors;\n  \n  mapping (address => patient) private patients; //mapping patients to their addresses\n  mapping (address => mapping (address => uint16)) private patientToDoctor; //patients and list of doctors allowed access to\n  mapping (address => mapping (bytes32 => uint16)) private patientToFile; //files mapped to patients\n  mapping (address => files[]) private patientFiles;\n  mapping (address => hospital) private hospitals;\n  mapping (address => insuranceComp) insuranceCompanies;\n  // mapping (address => doctorAddedFiles[]) private doctorAddedPatientFiles;\n  // mapping (address => doctorOfferedConsultation[]) private doctorOfferedConsultationList;\n  mapping (address => adhaar) patient_adhaar_info;\n  mapping (address => adhaar) doctor_adhaar_info;\n\n\n  struct adhaar{\n    address id;\n    uint64 adhaar_number;\n    string name;\n    string DOB;\n    uint24 pincode;\n  }\n\n  //structure of patient file\n  struct files{\n      string file_name;\n      string file_type;\n      string file_hash;\n  }\n  \n  //structure of hospital\n  struct hospital{\n    address id;  \n    string name;\n    string location;\n    string license;\n  }\n  \n  //structure of Insurance companies\n  struct insuranceComp{\n    address id;  \n    string name;\n    mapping (address => uint8) regPatientsMapping;\n    address[] regPatients;\n  }\n  \n\n  //structure of patient info\n  struct patient {\n    string name;\n    string DOB;\n    uint64 adhaar_number;\n    address id;\n    string gender;\n    string contact_info;\n\n    bytes32[] files;// hashes of file that belong to this user for display purpose\n    address[] doctor_list;\n  }\n  \n \n  //structure of doctor info\n  struct doctor {\n      string name;\n      address id;\n      uint64 adhaar_number;\n      string contact;\n      string specialization;\n      address[] patient_list;\n  }\n\n  //setting the Admin\n  constructor() public {\n    Admin = 0xEeef95fDBE8F64EE73068170a631fBD95d257553;\n  }\n  \n  //verify doctor \n  modifier checkDoctor(address id) {\n    doctor memory d = doctors[id];\n    require(d.id > address(0x0));//check if doctor exist\n    _;\n  }\n  \n  //verify patient\n  modifier checkPatient(address id) {\n    patient memory p = patients[id];\n    require(p.id > address(0x0));//check if patient exist\n    _;\n  }\n\n \n  //Admin verification modifier\n  modifier onlyAdmin() {\n    require(msg.sender == Admin);\n    _;\n  }\n   \n\n\n  function hospitalSignUp(address _id, string memory _name, string memory _location,string memory _license ) public onlyAdmin() {\n    \n    hospital memory h= hospitals[_id];\n    require(!(h.id > address(0x0)));\n    require(keccak256(abi.encodePacked(_name)) != keccak256(\"\"));\n    hospitals[_id] = hospital({id:_id, name:_name, location: _location,license: _license});\n  }\n\n  //Event to emit when new patient registers\n  event patientSignUp( address _patient, string message);\n\n  function signupPatient(string memory _name, string memory _contact, string memory _gender) public {\n\n    //search for patient on blockchain by address \n    patient storage p = patients[msg.sender];\n    adhaar memory a = patient_adhaar_info[msg.sender];\n    //Check if the patient already exists by address\n    require(!(p.id > address(0x0)));\n    //Add patient to blockchain\n    require(a.adhaar_number > 0);\n\n    patients[msg.sender] = patient({name:_name, DOB: a.DOB, id:msg.sender, adhaar_number: a.adhaar_number, gender:_gender, contact_info:_contact, files:new bytes32[](0), doctor_list:new address[](0)});\n    \n\n    emit patientSignUp( msg.sender, \"Registered as Patient\");\n  }\n  \n\n  //Event to emit when new doctor registers\n  event doctorSignUp(address _doctor, string message);\n\n  function signupDoctor(address _id, string memory _name, string memory _contact, string memory _specialization) public {\n\n      //search for doctor on blockchain\n      doctor storage d = doctors[_id];\n      adhaar memory a = doctor_adhaar_info[_id];\n      //check name of doctor\n      require(keccak256(abi.encodePacked(_name)) != keccak256(\"\"));\n      //check if doctor already exists\n      require(!(d.id > address(0x0)));\n\n      require(a.adhaar_number > 0);\n      //Add the doctor to blockchain\n      doctors[_id] = doctor({name:_name, id:_id, contact:_contact, adhaar_number: a.adhaar_number, specialization: _specialization, patient_list:new address[](0)});\n     \n      emit doctorSignUp(_id, \"Registered as Doctor\");\n  }\n\n\n  //Event to emit when patient grants access to doctor\n  event grantDoctorAccess( address patient_address, string message, string _doctor, address doctor_address);\n  \n  function grantAccessToDoctor(address doctor_id) public checkPatient(msg.sender) checkDoctor(doctor_id) {\n      \n      patient storage p = patients[msg.sender];\n      doctor storage d = doctors[doctor_id];\n      require(patientToDoctor[msg.sender][doctor_id] < 1);// this means doctor already been access\n      \n      uint16 pos = (uint16)(p.doctor_list.push(doctor_id));// new length of array\n      \n      patientToDoctor[msg.sender][doctor_id] = pos;\n      d.patient_list.push(msg.sender);\n\n   \n      \n      emit grantDoctorAccess( msg.sender , \"Granted access to doctor\", d.name , doctor_id);\n  }\n\n  //Event to emit when patient revokes a doctor's access\n  event revokeDoctorAccess(address patient_address, string message, string _doctor, address doctor_address);\n\n  function revokeAccessFromDoctor(address doctor_id) public checkPatient(msg.sender){\n    require(patientToDoctor[msg.sender][doctor_id] > 0);\n    patientToDoctor[msg.sender][doctor_id] = 0;\n\n\n    patient storage p = patients[msg.sender];\n    doctor storage d = doctors[doctor_id];\n\n    uint16 pdlength= (uint16)(p.doctor_list.length);\n    uint16 pos=0;\n\n    for (uint16 i = 0; i < pdlength; i++) {\n      if(p.doctor_list[i] == doctor_id)\n      {\n        pos=i;\n        break;\n      }\n    }\n\n    for(;pos<pdlength-1;pos++)\n    {\n      p.doctor_list[pos]= p.doctor_list[pos+1];\n    }\n\n    p.doctor_list.pop();\n\n    pdlength= (uint16)(d.patient_list.length);\n    pos=0;\n\n    for (uint16 i = 0; i < pdlength; i++) {\n      if(d.patient_list[i] == msg.sender)\n      {\n        pos=i;\n        break;\n      }\n    }\n\n    for(;pos<pdlength-1;pos++)\n    {\n      d.patient_list[pos]= d.patient_list[pos+1];\n    }\n\n    d.patient_list.pop();\n\n    emit revokeDoctorAccess(msg.sender, \"Revoked access of doctor\", d.name, doctor_id);\n  }\n  \n\n\n  function addUserFiles(string memory _file_name, string memory _file_type,string memory _file_hash) public{\n\n    patientFiles[msg.sender].push(files({file_name:_file_name, file_type:_file_type,file_hash:_file_hash}));\n\n  }\n\n\n  function getUserFiles(address sender)public view returns(files[] memory){\n      return patientFiles[sender];\n  }\n\n\n\n  function getPatientInfo() public view checkPatient(msg.sender) returns(string memory,address, string memory, bytes32[] memory , address[] memory, string memory, string memory) {\n      \n    patient memory p = patients[msg.sender];\n    return (p.name, p.id, p.DOB, p.files, p.doctor_list, p.gender, p.contact_info );\n  }\n\n\n\n  function getDoctorInfo() public view checkDoctor(msg.sender) returns(string memory, address, address[] memory, string memory, string memory) {\n      doctor memory d = doctors[msg.sender];\n\n      return (d.name, d.id, d.patient_list, d.contact, d.specialization);\n  }\n  \n  function checkDoctorInfo(uint64 _adhaar_number) public view returns(bool, address) {\n    \n    doctor memory d = doctors[msg.sender];\n    adhaar memory a = doctor_adhaar_info[msg.sender];\n   \n   if (a.adhaar_number == _adhaar_number){\n      return (true, d.id);\n    }\n\n    else \n      return (false, d.id);\n\n  }\n\n  function checkPatientInfo(uint64 _adhaar_number) public view returns(bool, address) {\n    patient memory p = patients[msg.sender];\n    adhaar memory a = patient_adhaar_info[msg.sender];\n    if (a.adhaar_number == _adhaar_number){\n      return (true,p.id);\n    }\n\n    else \n      return (false,p.id);\n\n  }\n  \n  \n  function getPatientInfoForDoctor(address pat) public view returns(string memory, string memory, address, files[] memory){\n      patient memory p = patients[pat];\n      return (p.name, p.DOB, p.id, patientFiles[pat]);\n    }\n\n  function getHospitalInfo() public view returns(address, string memory, string memory,string memory)\n  {\n    hospital memory h = hospitals[msg.sender];\n    if(h.id == 0x0000000000000000000000000000000000000000)\n    {\n      return (h.id,\"false\",\"error\",\"error\");\n    }\n    return (h.id, h.name, h.location,h.license);\n  }\n\n  function getAdminInfo() public view  onlyAdmin() returns(address)\n  {\n    return (Admin);\n  }\n\n  function hospitalGrantAccess(address _user, address _patient) public checkPatient(_patient)\n  {\n    doctor storage d = doctors[_user];\n    patient storage p = patients[_patient];\n    if(d.id > address(0x0))\n    {\n      require(patientToDoctor[_patient][_user] < 1);// this means doctor already been access\n      \n      uint16 pos = (uint16)(p.doctor_list.push(_user));// new length of array\n      \n      patientToDoctor[_patient][_user] = pos;\n      d.patient_list.push(_patient);    \n    }\n  }\n\n  function addHospital(address _id, string memory _name, string memory _location, string memory _license) public onlyAdmin(){\n    hospital memory h = hospitals[_id];\n    require(!(h.id > address(0x0)));\n    hospitals[_id] = hospital({id:_id, name:_name, location:_location,license: _license});\n  }\n \n  function regInsuranceComp(address _id, string memory _name) public onlyAdmin() {\n    insuranceComp memory i= insuranceCompanies[_id];\n    require(!(i.id> address(0x0)));\n    insuranceCompanies[_id] = insuranceComp({id:_id, name:_name, regPatients: new address[](0)});\n  } \n\n  function getInsuranceCompInfo() public view returns(address,string memory, address[] memory){\n    insuranceComp memory i= insuranceCompanies[msg.sender];\n    return(i.id,i.name,i.regPatients);\n  }\n\n  function addPatientToInsuranceComp(address _insuranceComp, address _pat) public{\n    insuranceComp storage i = insuranceCompanies[_insuranceComp];\n    require(i.regPatientsMapping[_pat]<1);\n    uint8 pos=(uint8)(i.regPatients.push(_pat));\n    i.regPatientsMapping[_pat]=pos;\n  }\n\n\n\n  function addDoctorAdhaarInfo(address _doc, string memory _name, string memory _DOB, uint24 _pincode, uint64 _adhaar_number) public {\n    adhaar memory a = doctor_adhaar_info[_doc];\n    require(a.adhaar_number == 0);\n    doctor_adhaar_info[_doc] = adhaar({id:_doc, pincode: _pincode, name: _name, DOB: _DOB, adhaar_number: _adhaar_number});\n  }\n\n  function addPatientAdhaarInfo(address _pat, string memory _name, string memory _DOB, uint24 _pincode, uint64 _adhaar_number) public {\n    adhaar memory a = patient_adhaar_info[_pat];\n    require(a.adhaar_number == 0);\n    patient_adhaar_info[_pat] = adhaar({id:_pat, pincode: _pincode, name: _name, DOB: _DOB, adhaar_number: _adhaar_number});\n  }\n  \n}",
  "sourcePath": "/home/santhosh/Documents/miniproject/contracts/optimized_healthCare.sol",
  "compiler": {
    "name": "solc",
    "version": "0.5.17+commit.d19bba13.Emscripten.clang"
  },
  "schemaVersion": "3.4.7",
  "updatedAt": "2022-07-02T19:03:22.372Z",
  "devdoc": {
    "methods": {}
  },
  "userdoc": {
    "methods": {}
  }
}