{
  "contractName": "HospitalContract",
  "abi": [
    {
      "inputs": [],
      "stateMutability": "nonpayable",
      "type": "constructor"
    },
    {
      "inputs": [
        {
          "internalType": "address",
          "name": "",
          "type": "address"
        }
      ],
      "name": "hosital_list",
      "outputs": [
        {
          "internalType": "address",
          "name": "hospital_account_address",
          "type": "address"
        },
        {
          "internalType": "string",
          "name": "name",
          "type": "string"
        },
        {
          "internalType": "string",
          "name": "hospital_address",
          "type": "string"
        },
        {
          "internalType": "uint256",
          "name": "hospital_number",
          "type": "uint256"
        },
        {
          "internalType": "bool",
          "name": "isRegistered",
          "type": "bool"
        }
      ],
      "stateMutability": "view",
      "type": "function"
    },
    {
      "inputs": [
        {
          "internalType": "address",
          "name": "",
          "type": "address"
        }
      ],
      "name": "patients",
      "outputs": [
        {
          "internalType": "address",
          "name": "patient_account_address",
          "type": "address"
        },
        {
          "internalType": "string",
          "name": "name",
          "type": "string"
        },
        {
          "internalType": "string",
          "name": "perm_address",
          "type": "string"
        },
        {
          "internalType": "int8",
          "name": "age",
          "type": "int8"
        },
        {
          "internalType": "string",
          "name": "gender",
          "type": "string"
        },
        {
          "internalType": "bool",
          "name": "registered",
          "type": "bool"
        }
      ],
      "stateMutability": "view",
      "type": "function"
    },
    {
      "inputs": [
        {
          "internalType": "address",
          "name": "hospital_account_address",
          "type": "address"
        },
        {
          "internalType": "string",
          "name": "name",
          "type": "string"
        },
        {
          "internalType": "string",
          "name": "hospital_address",
          "type": "string"
        },
        {
          "internalType": "uint256",
          "name": "hospital_number",
          "type": "uint256"
        }
      ],
      "name": "addHospital",
      "outputs": [],
      "stateMutability": "nonpayable",
      "type": "function"
    },
    {
      "inputs": [
        {
          "internalType": "address",
          "name": "hospital_account_address",
          "type": "address"
        }
      ],
      "name": "removeHospital",
      "outputs": [
        {
          "internalType": "bool",
          "name": "",
          "type": "bool"
        }
      ],
      "stateMutability": "nonpayable",
      "type": "function"
    },
    {
      "inputs": [
        {
          "internalType": "address",
          "name": "doctor_account_address",
          "type": "address"
        },
        {
          "internalType": "string",
          "name": "name",
          "type": "string"
        },
        {
          "internalType": "string",
          "name": "specializations",
          "type": "string"
        }
      ],
      "name": "addDoctor",
      "outputs": [
        {
          "internalType": "bool",
          "name": "",
          "type": "bool"
        }
      ],
      "stateMutability": "nonpayable",
      "type": "function"
    },
    {
      "inputs": [
        {
          "internalType": "address",
          "name": "doctor_account_address",
          "type": "address"
        }
      ],
      "name": "removeDoctor",
      "outputs": [
        {
          "internalType": "bool",
          "name": "",
          "type": "bool"
        }
      ],
      "stateMutability": "nonpayable",
      "type": "function"
    },
    {
      "inputs": [
        {
          "internalType": "address",
          "name": "patient_account_address",
          "type": "address"
        },
        {
          "internalType": "string",
          "name": "name",
          "type": "string"
        },
        {
          "internalType": "string",
          "name": "perm_address",
          "type": "string"
        },
        {
          "internalType": "int8",
          "name": "age",
          "type": "int8"
        },
        {
          "internalType": "string",
          "name": "gender",
          "type": "string"
        }
      ],
      "name": "addPatint",
      "outputs": [
        {
          "internalType": "bool",
          "name": "",
          "type": "bool"
        }
      ],
      "stateMutability": "nonpayable",
      "type": "function"
    },
    {
      "inputs": [
        {
          "internalType": "address",
          "name": "patient_address",
          "type": "address"
        },
        {
          "internalType": "string",
          "name": "date",
          "type": "string"
        },
        {
          "internalType": "string",
          "name": "disease_name",
          "type": "string"
        },
        {
          "internalType": "string",
          "name": "medicines_prescribed",
          "type": "string"
        },
        {
          "internalType": "string",
          "name": "ipfshash_of_document",
          "type": "string"
        }
      ],
      "name": "addEHR",
      "outputs": [
        {
          "internalType": "bool",
          "name": "",
          "type": "bool"
        }
      ],
      "stateMutability": "nonpayable",
      "type": "function"
    }
  ],
  "bytecode": "0x608060405234801561001057600080fd5b50336000806101000a81548173ffffffffffffffffffffffffffffffffffffffff021916908373ffffffffffffffffffffffffffffffffffffffff160217905550611d6c806100606000396000f3fe608060405234801561001057600080fd5b50600436106100885760003560e01c806398fc90e91161005b57806398fc90e91461013e578063a96989061461016e578063e05c22671461019e578063e8d7825c146101ce57610088565b8063036dfed01461008d5780630869cfbc146100bd5780632fc85a5a146100f257806334b789981461010e575b600080fd5b6100a760048036038101906100a291906114ac565b610202565b6040516100b491906115b2565b60405180910390f35b6100d760048036038101906100d291906115cd565b6103a7565b6040516100e9969594939291906116ad565b60405180910390f35b61010c60048036038101906101079190611759565b6105b5565b005b610128600480360381019061012391906117f8565b6107a5565b60405161013591906115b2565b60405180910390f35b610158600480360381019061015391906115cd565b61095d565b60405161016591906115b2565b60405180910390f35b610188600480360381019061018391906115cd565b610bf7565b60405161019591906115b2565b60405180910390f35b6101b860048036038101906101b391906118af565b610dc5565b6040516101c591906115b2565b60405180910390f35b6101e860048036038101906101e391906115cd565b611007565b6040516101f995949392919061198d565b60405180910390f35b600085600360008273ffffffffffffffffffffffffffffffffffffffff1673ffffffffffffffffffffffffffffffffffffffff16815260200190815260200160002060050160009054906101000a900460ff16610294576040517f08c379a000000000000000000000000000000000000000000000000000000000815260040161028b90611a3a565b60405180910390fd5b60006040518060800160405280888152602001878152602001868152602001858152509050600460008973ffffffffffffffffffffffffffffffffffffffff1673ffffffffffffffffffffffffffffffffffffffff168152602001908152602001600020819080600181540180825580915050600190039060005260206000209060040201600090919091909150600082015181600001908051906020019061033e92919061117a565b50602082015181600101908051906020019061035b92919061117a565b50604082015181600201908051906020019061037892919061117a565b50606082015181600301908051906020019061039592919061117a565b50505060019250505095945050505050565b60036020528060005260406000206000915090508060000160009054906101000a900473ffffffffffffffffffffffffffffffffffffffff16908060010180546103f090611a89565b80601f016020809104026020016040519081016040528092919081815260200182805461041c90611a89565b80156104695780601f1061043e57610100808354040283529160200191610469565b820191906000526020600020905b81548152906001019060200180831161044c57829003601f168201915b50505050509080600201805461047e90611a89565b80601f01602080910402602001604051908101604052809291908181526020018280546104aa90611a89565b80156104f75780601f106104cc576101008083540402835291602001916104f7565b820191906000526020600020905b8154815290600101906020018083116104da57829003601f168201915b5050505050908060030160009054906101000a900460000b9080600401805461051f90611a89565b80601f016020809104026020016040519081016040528092919081815260200182805461054b90611a89565b80156105985780601f1061056d57610100808354040283529160200191610598565b820191906000526020600020905b81548152906001019060200180831161057b57829003601f168201915b5050505050908060050160009054906101000a900460ff16905086565b60008054906101000a900473ffffffffffffffffffffffffffffffffffffffff1673ffffffffffffffffffffffffffffffffffffffff163373ffffffffffffffffffffffffffffffffffffffff1614610643576040517f08c379a000000000000000000000000000000000000000000000000000000000815260040161063a90611b06565b60405180910390fd5b61064b611200565b84816000019073ffffffffffffffffffffffffffffffffffffffff16908173ffffffffffffffffffffffffffffffffffffffff168152505083816020018190525082816040018190525081816060018181525050600181608001901515908115158152505080600160008773ffffffffffffffffffffffffffffffffffffffff1673ffffffffffffffffffffffffffffffffffffffff16815260200190815260200160002060008201518160000160006101000a81548173ffffffffffffffffffffffffffffffffffffffff021916908373ffffffffffffffffffffffffffffffffffffffff160217905550602082015181600101908051906020019061075392919061117a565b50604082015181600201908051906020019061077092919061117a565b506060820151816003015560808201518160040160006101000a81548160ff0219169083151502179055509050505050505050565b6000600160003373ffffffffffffffffffffffffffffffffffffffff1673ffffffffffffffffffffffffffffffffffffffff16815260200190815260200160002060040160009054906101000a900460ff16610836576040517f08c379a000000000000000000000000000000000000000000000000000000000815260040161082d90611b72565b60405180910390fd5b600260003373ffffffffffffffffffffffffffffffffffffffff1673ffffffffffffffffffffffffffffffffffffffff16815260200190815260200160002060405180606001604052808673ffffffffffffffffffffffffffffffffffffffff16815260200185815260200184815250908060018154018082558091505060019003906000526020600020906003020160009091909190915060008201518160000160006101000a81548173ffffffffffffffffffffffffffffffffffffffff021916908373ffffffffffffffffffffffffffffffffffffffff160217905550602082015181600101908051906020019061093292919061117a565b50604082015181600201908051906020019061094f92919061117a565b505050600190509392505050565b6000600160003373ffffffffffffffffffffffffffffffffffffffff1673ffffffffffffffffffffffffffffffffffffffff16815260200190815260200160002060040160009054906101000a900460ff166109ee576040517f08c379a00000000000000000000000000000000000000000000000000000000081526004016109e590611b72565b60405180910390fd5b60005b600260003373ffffffffffffffffffffffffffffffffffffffff1673ffffffffffffffffffffffffffffffffffffffff16815260200190815260200160002080549050811015610bb6578273ffffffffffffffffffffffffffffffffffffffff16600260003373ffffffffffffffffffffffffffffffffffffffff1673ffffffffffffffffffffffffffffffffffffffff1681526020019081526020016000208281548110610aa357610aa2611b92565b5b906000526020600020906003020160000160009054906101000a900473ffffffffffffffffffffffffffffffffffffffff1673ffffffffffffffffffffffffffffffffffffffff1603610ba357600260003373ffffffffffffffffffffffffffffffffffffffff1673ffffffffffffffffffffffffffffffffffffffff1681526020019081526020016000208181548110610b4157610b40611b92565b5b9060005260206000209060030201600080820160006101000a81549073ffffffffffffffffffffffffffffffffffffffff0219169055600182016000610b879190611247565b600282016000610b979190611247565b50506001915050610bf2565b8080610bae90611bf0565b9150506109f1565b506040517f08c379a0000000000000000000000000000000000000000000000000000000008152600401610be990611caa565b60405180910390fd5b919050565b60008060009054906101000a900473ffffffffffffffffffffffffffffffffffffffff1673ffffffffffffffffffffffffffffffffffffffff163373ffffffffffffffffffffffffffffffffffffffff1614610c88576040517f08c379a0000000000000000000000000000000000000000000000000000000008152600401610c7f90611b06565b60405180910390fd5b600160008373ffffffffffffffffffffffffffffffffffffffff1673ffffffffffffffffffffffffffffffffffffffff16815260200190815260200160002060040160009054906101000a900460ff16610d17576040517f08c379a0000000000000000000000000000000000000000000000000000000008152600401610d0e90611d16565b60405180910390fd5b600160008373ffffffffffffffffffffffffffffffffffffffff1673ffffffffffffffffffffffffffffffffffffffff168152602001908152602001600020600080820160006101000a81549073ffffffffffffffffffffffffffffffffffffffff0219169055600182016000610d8e9190611247565b600282016000610d9e9190611247565b60038201600090556004820160006101000a81549060ff0219169055505060019050919050565b6000600160003373ffffffffffffffffffffffffffffffffffffffff1673ffffffffffffffffffffffffffffffffffffffff16815260200190815260200160002060040160009054906101000a900460ff16610e56576040517f08c379a0000000000000000000000000000000000000000000000000000000008152600401610e4d90611b72565b60405180910390fd5b610e5e611287565b86816000019073ffffffffffffffffffffffffffffffffffffffff16908173ffffffffffffffffffffffffffffffffffffffff168152505085816020018190525084816040018190525083816060019060000b908160000b8152505082816080018190525060018160a001901515908115158152505080600360008973ffffffffffffffffffffffffffffffffffffffff1673ffffffffffffffffffffffffffffffffffffffff16815260200190815260200160002060008201518160000160006101000a81548173ffffffffffffffffffffffffffffffffffffffff021916908373ffffffffffffffffffffffffffffffffffffffff1602179055506020820151816001019080519060200190610f7792919061117a565b506040820151816002019080519060200190610f9492919061117a565b5060608201518160030160006101000a81548160ff021916908360000b60ff1602179055506080820151816004019080519060200190610fd592919061117a565b5060a08201518160050160006101000a81548160ff021916908315150217905550905050600191505095945050505050565b60016020528060005260406000206000915090508060000160009054906101000a900473ffffffffffffffffffffffffffffffffffffffff169080600101805461105090611a89565b80601f016020809104026020016040519081016040528092919081815260200182805461107c90611a89565b80156110c95780601f1061109e576101008083540402835291602001916110c9565b820191906000526020600020905b8154815290600101906020018083116110ac57829003601f168201915b5050505050908060020180546110de90611a89565b80601f016020809104026020016040519081016040528092919081815260200182805461110a90611a89565b80156111575780601f1061112c57610100808354040283529160200191611157565b820191906000526020600020905b81548152906001019060200180831161113a57829003601f168201915b5050505050908060030154908060040160009054906101000a900460ff16905085565b82805461118690611a89565b90600052602060002090601f0160209004810192826111a857600085556111ef565b82601f106111c157805160ff19168380011785556111ef565b828001600101855582156111ef579182015b828111156111ee5782518255916020019190600101906111d3565b5b5090506111fc91906112d7565b5090565b6040518060a00160405280600073ffffffffffffffffffffffffffffffffffffffff1681526020016060815260200160608152602001600081526020016000151581525090565b50805461125390611a89565b6000825580601f106112655750611284565b601f01602090049060005260206000209081019061128391906112d7565b5b50565b6040518060c00160405280600073ffffffffffffffffffffffffffffffffffffffff16815260200160608152602001606081526020016000800b8152602001606081526020016000151581525090565b5b808211156112f05760008160009055506001016112d8565b5090565b6000604051905090565b600080fd5b600080fd5b600073ffffffffffffffffffffffffffffffffffffffff82169050919050565b600061133382611308565b9050919050565b61134381611328565b811461134e57600080fd5b50565b6000813590506113608161133a565b92915050565b600080fd5b600080fd5b6000601f19601f8301169050919050565b7f4e487b7100000000000000000000000000000000000000000000000000000000600052604160045260246000fd5b6113b982611370565b810181811067ffffffffffffffff821117156113d8576113d7611381565b5b80604052505050565b60006113eb6112f4565b90506113f782826113b0565b919050565b600067ffffffffffffffff82111561141757611416611381565b5b61142082611370565b9050602081019050919050565b82818337600083830152505050565b600061144f61144a846113fc565b6113e1565b90508281526020810184848401111561146b5761146a61136b565b5b61147684828561142d565b509392505050565b600082601f83011261149357611492611366565b5b81356114a384826020860161143c565b91505092915050565b600080600080600060a086880312156114c8576114c76112fe565b5b60006114d688828901611351565b955050602086013567ffffffffffffffff8111156114f7576114f6611303565b5b6115038882890161147e565b945050604086013567ffffffffffffffff81111561152457611523611303565b5b6115308882890161147e565b935050606086013567ffffffffffffffff81111561155157611550611303565b5b61155d8882890161147e565b925050608086013567ffffffffffffffff81111561157e5761157d611303565b5b61158a8882890161147e565b9150509295509295909350565b60008115159050919050565b6115ac81611597565b82525050565b60006020820190506115c760008301846115a3565b92915050565b6000602082840312156115e3576115e26112fe565b5b60006115f184828501611351565b91505092915050565b61160381611328565b82525050565b600081519050919050565b600082825260208201905092915050565b60005b83811015611643578082015181840152602081019050611628565b83811115611652576000848401525b50505050565b600061166382611609565b61166d8185611614565b935061167d818560208601611625565b61168681611370565b840191505092915050565b60008160000b9050919050565b6116a781611691565b82525050565b600060c0820190506116c260008301896115fa565b81810360208301526116d48188611658565b905081810360408301526116e88187611658565b90506116f7606083018661169e565b81810360808301526117098185611658565b905061171860a08301846115a3565b979650505050505050565b6000819050919050565b61173681611723565b811461174157600080fd5b50565b6000813590506117538161172d565b92915050565b60008060008060808587031215611773576117726112fe565b5b600061178187828801611351565b945050602085013567ffffffffffffffff8111156117a2576117a1611303565b5b6117ae8782880161147e565b935050604085013567ffffffffffffffff8111156117cf576117ce611303565b5b6117db8782880161147e565b92505060606117ec87828801611744565b91505092959194509250565b600080600060608486031215611811576118106112fe565b5b600061181f86828701611351565b935050602084013567ffffffffffffffff8111156118405761183f611303565b5b61184c8682870161147e565b925050604084013567ffffffffffffffff81111561186d5761186c611303565b5b6118798682870161147e565b9150509250925092565b61188c81611691565b811461189757600080fd5b50565b6000813590506118a981611883565b92915050565b600080600080600060a086880312156118cb576118ca6112fe565b5b60006118d988828901611351565b955050602086013567ffffffffffffffff8111156118fa576118f9611303565b5b6119068882890161147e565b945050604086013567ffffffffffffffff81111561192757611926611303565b5b6119338882890161147e565b93505060606119448882890161189a565b925050608086013567ffffffffffffffff81111561196557611964611303565b5b6119718882890161147e565b9150509295509295909350565b61198781611723565b82525050565b600060a0820190506119a260008301886115fa565b81810360208301526119b48187611658565b905081810360408301526119c88186611658565b90506119d7606083018561197e565b6119e460808301846115a3565b9695505050505050565b7f70617469656e74206e6f74207265676973746572656400000000000000000000600082015250565b6000611a24601683611614565b9150611a2f826119ee565b602082019050919050565b60006020820190508181036000830152611a5381611a17565b9050919050565b7f4e487b7100000000000000000000000000000000000000000000000000000000600052602260045260246000fd5b60006002820490506001821680611aa157607f821691505b602082108103611ab457611ab3611a5a565b5b50919050565b7f594f5520415245204e4f54205045524d495454454420544f20444f2054484953600082015250565b6000611af0602083611614565b9150611afb82611aba565b602082019050919050565b60006020820190508181036000830152611b1f81611ae3565b9050919050565b7f4f6e6c7920686f73706974616c20686176652074686973206163636573730000600082015250565b6000611b5c601e83611614565b9150611b6782611b26565b602082019050919050565b60006020820190508181036000830152611b8b81611b4f565b9050919050565b7f4e487b7100000000000000000000000000000000000000000000000000000000600052603260045260246000fd5b7f4e487b7100000000000000000000000000000000000000000000000000000000600052601160045260246000fd5b6000611bfb82611723565b91507fffffffffffffffffffffffffffffffffffffffffffffffffffffffffffffffff8203611c2d57611c2c611bc1565b5b600182019050919050565b7f45697468657220646f63746f72206973206e6f7420726563727569746564206f60008201527f7220686f73706974616c206e6f74207265676973746572656400000000000000602082015250565b6000611c94603983611614565b9150611c9f82611c38565b604082019050919050565b60006020820190508181036000830152611cc381611c87565b9050919050565b7f486f73706974616c20646f6e7420657869737473000000000000000000000000600082015250565b6000611d00601483611614565b9150611d0b82611cca565b602082019050919050565b60006020820190508181036000830152611d2f81611cf3565b905091905056fea2646970667358221220a3dcc983279c6f72062116d7a1210fc9458bf83ba82f92cedb268ced8d53807c64736f6c634300080d0033",
  "immutableReferences": {},
  "source": "//SPDX-License-Identifier: UNLICENSED\npragma solidity >0.4.1;\n\n\ncontract HospitalContract{\n    ////\n    ///...Different objects\n\n    struct Hospital{\n        address hospital_account_address;\n        string name;\n        string hospital_address;\n        uint hospital_number; \n        bool isRegistered;\n        \n    }\n    \n    struct Doctor{\n        address doctor_account_address;\n        string name;\n        string specializations;\n    }\n\n    struct Patient{\n        address patient_account_address;\n        string name;\n        string perm_address;\n        int8 age;\n        string gender;\n        bool registered;\n    }\n\n\n    struct EHR{\n        string date; \n        string disease_name;\n        string medicines_prescribed;\n        string ipfshash_of_documnet;\n    }\n\n    ////....Creating the administrator of the system\n\n    address internal administrator;\n    constructor(){\n        administrator=msg.sender;\n    }\n\n    //.....Creation of  Hospital by administrator\n    \n\n    mapping(address=>Hospital) public hosital_list;\n\n    modifier isOwner(){\n        require((msg.sender==administrator),\"YOU ARE NOT PERMITTED TO DO THIS\");\n        _;\n    }\n    \n\n    function addHospital( \n        address hospital_account_address,\n        string memory name,\n        string memory hospital_address,\n        uint hospital_number\n        )  \n        \n        public\n        \n        isOwner\n        {\n\n        \n        Hospital memory newHp;\n        newHp.hospital_account_address=hospital_account_address;\n        newHp.name=name;\n        newHp.hospital_address=hospital_address;\n        newHp.hospital_number=hospital_number;\n        newHp.isRegistered=true;\n        hosital_list[hospital_account_address]=newHp;\n\n\n    }\n\n    //.....Deletion of hospital by administrator\n\n    function removeHospital(address hospital_account_address) public  isOwner returns(bool){\n        \n        require((hosital_list[hospital_account_address].isRegistered),\"Hospital dont exists\");\n        delete hosital_list[hospital_account_address];\n        return true;\n    }\n   \n\n   /////.......recruitement of doctor by hospital\n\n    modifier isHospital(){\n        require((hosital_list[msg.sender].isRegistered),\"Only hospital have this access\");\n        _;\n    }\n\n  \n    mapping(address=>Doctor[]) doctors_in_hospital;\n\n    function addDoctor(\n        address doctor_account_address,\n        string memory name,\n        string memory specializations\n    )\n        public isHospital returns(bool)\n    {\n        \n        doctors_in_hospital[msg.sender].push(Doctor(doctor_account_address,name,specializations));\n        return true;\n    }\n\n\n    function removeDoctor(address doctor_account_address) public isHospital returns(bool){\n        for(uint i=0; i<doctors_in_hospital[msg.sender].length; i++){\n            if(doctors_in_hospital[msg.sender][i].doctor_account_address==doctor_account_address){\n                delete doctors_in_hospital[msg.sender][i];\n                return true;\n            }\n        }     \n        revert(\"Either doctor is not recruited or hospital not registered\");                \n    }\n\n\n\n    ////adding patient to the block chain by hospital \n  \n\n    mapping(address=>Patient) public patients;\n\n    modifier isPatient(address patient_address){\n        require((patients[patient_address].registered),\"patient not registered\");\n        _;\n    }\n\n    function addPatint(\n        address patient_account_address,\n        string memory name,\n        string memory perm_address,\n        int8 age,\n        string memory gender\n        \n    ) isHospital public returns(bool){\n        Patient memory pat;\n        pat.patient_account_address=patient_account_address;\n        pat.name=name;\n        pat.perm_address=perm_address;\n        pat.age=age;\n        pat.gender=gender;\n        pat.registered=true;\n        patients[patient_account_address]=pat;\n        return true;\n    }   \n\n\n    mapping (address=>EHR[]) patientEhrs;\n\n    function addEHR(\n        address patient_address,\n        string memory date,\n        string memory disease_name,\n        string memory medicines_prescribed,\n        string memory ipfshash_of_document    \n        ) public isPatient(patient_address) returns(bool) {\n            EHR memory ehr= EHR(\n                    date,\n                    disease_name,\n                    medicines_prescribed,\n                    ipfshash_of_document\n                );\n            patientEhrs[patient_address].push(ehr);\n            return true;\n    }\n    \n\n\n\n\n\n  \n\n}\n\n///////////////////\n\n\n\n",
  "sourcePath": "/media/praneeth/New Volume/z_main_folder/Block_Chain/eth-todo-list/contracts/HospitalContract.sol",
  "compiler": {
    "name": "solc",
    "version": "0.8.13+commit.abaa5c0e.Emscripten.clang"
  },
  "schemaVersion": "3.4.7",
  "updatedAt": "2022-06-05T10:50:26.761Z",
  "devdoc": {
    "kind": "dev",
    "methods": {},
    "version": 1
  },
  "userdoc": {
    "kind": "user",
    "methods": {},
    "version": 1
  }
}