{
  "contractName": "Modo2",
  "abi": [
    {
      "inputs": [],
      "name": "count23",
      "outputs": [
        {
          "internalType": "uint256",
          "name": "",
          "type": "uint256"
        }
      ],
      "stateMutability": "view",
      "type": "function",
      "constant": true
    }
  ],
  "bytecode": "0x60806040526000805534801561001457600080fd5b5060b3806100236000396000f3fe6080604052348015600f57600080fd5b506004361060285760003560e01c8063dfab699a14602d575b600080fd5b60336047565b604051603e91906064565b60405180910390f35b60005481565b6000819050919050565b605e81604d565b82525050565b6000602082019050607760008301846057565b9291505056fea2646970667358221220366a1485b57c231f2b142611d9ab76761c937e2b9556d95e8d71509b3f0ad3e264736f6c634300080d0033",
  "immutableReferences": {},
  "source": "pragma solidity \"0.8.13\";\n\ncontract Modo2{\n    uint public count23=0;\n}\n",
  "sourcePath": "/home/praneeth/BlockChain/eth-todo-list/contracts/Modo2.sol",
  "compiler": {
    "name": "solc",
    "version": "0.8.13+commit.abaa5c0e.Emscripten.clang"
  },
  "schemaVersion": "3.4.7",
  "updatedAt": "2022-05-04T13:36:04.706Z",
  "networkType": "ethereum",
  "devdoc": {
    "kind": "dev",
    "methods": {},
    "version": 1
  },
  "userdoc": {
    "kind": "user",
    "methods": {},
    "version": 1
  }
}