{
  "contractName": "Todo",
  "abi": [
    {
      "inputs": [],
      "stateMutability": "nonpayable",
      "type": "constructor"
    },
    {
      "inputs": [],
      "name": "count",
      "outputs": [
        {
          "internalType": "uint256",
          "name": "",
          "type": "uint256"
        }
      ],
      "stateMutability": "view",
      "type": "function"
    },
    {
      "inputs": [
        {
          "internalType": "uint256",
          "name": "",
          "type": "uint256"
        }
      ],
      "name": "todolist",
      "outputs": [
        {
          "internalType": "uint256",
          "name": "id",
          "type": "uint256"
        },
        {
          "internalType": "string",
          "name": "content",
          "type": "string"
        },
        {
          "internalType": "bool",
          "name": "completed",
          "type": "bool"
        }
      ],
      "stateMutability": "view",
      "type": "function"
    },
    {
      "inputs": [
        {
          "internalType": "string",
          "name": "_content",
          "type": "string"
        }
      ],
      "name": "addTask",
      "outputs": [],
      "stateMutability": "nonpayable",
      "type": "function"
    },
    {
      "inputs": [
        {
          "internalType": "uint256",
          "name": "id",
          "type": "uint256"
        }
      ],
      "name": "gettask",
      "outputs": [
        {
          "internalType": "string",
          "name": "",
          "type": "string"
        }
      ],
      "stateMutability": "view",
      "type": "function"
    },
    {
      "inputs": [],
      "name": "gettasklist",
      "outputs": [
        {
          "internalType": "string[]",
          "name": "",
          "type": "string[]"
        }
      ],
      "stateMutability": "view",
      "type": "function"
    }
  ],
  "bytecode": "0x6080604052600080553480156200001557600080fd5b506200005c6040518060400160405280600a81526020017f4669727374205461736b000000000000000000000000000000000000000000008152506200006260201b60201c565b62000295565b6040518060600160405280600054815260200182815260200160001515815250600160008060008154809291906200009a90620001e4565b919050558152602001908152602001600020600082015181600001556020820151816001019080519060200190620000d4929190620000fb565b5060408201518160020160006101000a81548160ff02191690831515021790555090505050565b828054620001099062000260565b90600052602060002090601f0160209004810192826200012d576000855562000179565b82601f106200014857805160ff191683800117855562000179565b8280016001018555821562000179579182015b82811115620001785782518255916020019190600101906200015b565b5b5090506200018891906200018c565b5090565b5b80821115620001a75760008160009055506001016200018d565b5090565b7f4e487b7100000000000000000000000000000000000000000000000000000000600052601160045260246000fd5b6000819050919050565b6000620001f182620001da565b91507fffffffffffffffffffffffffffffffffffffffffffffffffffffffffffffffff8203620002265762000225620001ab565b5b600182019050919050565b7f4e487b7100000000000000000000000000000000000000000000000000000000600052602260045260246000fd5b600060028204905060018216806200027957607f821691505b6020821081036200028f576200028e62000231565b5b50919050565b610ac680620002a56000396000f3fe608060405234801561001057600080fd5b50600436106100575760003560e01c806306661abd1461005c578063073715601461007a5780630f8fa3261461009857806367238562146100ca5780639f1046d6146100e6575b600080fd5b610064610116565b604051610071919061050e565b60405180910390f35b61008261011c565b60405161008f9190610684565b60405180910390f35b6100b260048036038101906100ad91906106e6565b610216565b6040516100c193929190610778565b60405180910390f35b6100e460048036038101906100df91906108eb565b6102d5565b005b61010060048036038101906100fb91906106e6565b61036a565b60405161010d9190610934565b60405180910390f35b60005481565b60608060005b60016000546101319190610985565b81101561020e57600060016000838152602001908152602001600020600101805461015b906109e8565b80601f0160208091040260200160405190810160405280929190818152602001828054610187906109e8565b80156101d45780601f106101a9576101008083540402835291602001916101d4565b820191906000526020600020905b8154815290600101906020018083116101b757829003601f168201915b50505050509050808383815181106101ef576101ee610a19565b5b602002602001018190525050808061020690610a48565b915050610122565b508091505090565b600160205280600052604060002060009150905080600001549080600101805461023f906109e8565b80601f016020809104026020016040519081016040528092919081815260200182805461026b906109e8565b80156102b85780601f1061028d576101008083540402835291602001916102b8565b820191906000526020600020905b81548152906001019060200180831161029b57829003601f168201915b5050505050908060020160009054906101000a900460ff16905083565b60405180606001604052806000548152602001828152602001600015158152506001600080600081548092919061030b90610a48565b919050558152602001908152602001600020600082015181600001556020820151816001019080519060200190610343929190610452565b5060408201518160020160006101000a81548160ff02191690831515021790555090505050565b6060600060016000848152602001908152602001600020604051806060016040529081600082015481526020016001820180546103a6906109e8565b80601f01602080910402602001604051908101604052809291908181526020018280546103d2906109e8565b801561041f5780601f106103f45761010080835404028352916020019161041f565b820191906000526020600020905b81548152906001019060200180831161040257829003601f168201915b505050505081526020016002820160009054906101000a900460ff16151515158152505090508060200151915050919050565b82805461045e906109e8565b90600052602060002090601f01602090048101928261048057600085556104c7565b82601f1061049957805160ff19168380011785556104c7565b828001600101855582156104c7579182015b828111156104c65782518255916020019190600101906104ab565b5b5090506104d491906104d8565b5090565b5b808211156104f15760008160009055506001016104d9565b5090565b6000819050919050565b610508816104f5565b82525050565b600060208201905061052360008301846104ff565b92915050565b600081519050919050565b600082825260208201905092915050565b6000819050602082019050919050565b600081519050919050565b600082825260208201905092915050565b60005b8381101561058f578082015181840152602081019050610574565b8381111561059e576000848401525b50505050565b6000601f19601f8301169050919050565b60006105c082610555565b6105ca8185610560565b93506105da818560208601610571565b6105e3816105a4565b840191505092915050565b60006105fa83836105b5565b905092915050565b6000602082019050919050565b600061061a82610529565b6106248185610534565b93508360208202850161063685610545565b8060005b85811015610672578484038952815161065385826105ee565b945061065e83610602565b925060208a0199505060018101905061063a565b50829750879550505050505092915050565b6000602082019050818103600083015261069e818461060f565b905092915050565b6000604051905090565b600080fd5b600080fd5b6106c3816104f5565b81146106ce57600080fd5b50565b6000813590506106e0816106ba565b92915050565b6000602082840312156106fc576106fb6106b0565b5b600061070a848285016106d1565b91505092915050565b600082825260208201905092915050565b600061072f82610555565b6107398185610713565b9350610749818560208601610571565b610752816105a4565b840191505092915050565b60008115159050919050565b6107728161075d565b82525050565b600060608201905061078d60008301866104ff565b818103602083015261079f8185610724565b90506107ae6040830184610769565b949350505050565b600080fd5b600080fd5b7f4e487b7100000000000000000000000000000000000000000000000000000000600052604160045260246000fd5b6107f8826105a4565b810181811067ffffffffffffffff82111715610817576108166107c0565b5b80604052505050565b600061082a6106a6565b905061083682826107ef565b919050565b600067ffffffffffffffff821115610856576108556107c0565b5b61085f826105a4565b9050602081019050919050565b82818337600083830152505050565b600061088e6108898461083b565b610820565b9050828152602081018484840111156108aa576108a96107bb565b5b6108b584828561086c565b509392505050565b600082601f8301126108d2576108d16107b6565b5b81356108e284826020860161087b565b91505092915050565b600060208284031215610901576109006106b0565b5b600082013567ffffffffffffffff81111561091f5761091e6106b5565b5b61092b848285016108bd565b91505092915050565b6000602082019050818103600083015261094e8184610724565b905092915050565b7f4e487b7100000000000000000000000000000000000000000000000000000000600052601160045260246000fd5b6000610990826104f5565b915061099b836104f5565b9250828210156109ae576109ad610956565b5b828203905092915050565b7f4e487b7100000000000000000000000000000000000000000000000000000000600052602260045260246000fd5b60006002820490506001821680610a0057607f821691505b602082108103610a1357610a126109b9565b5b50919050565b7f4e487b7100000000000000000000000000000000000000000000000000000000600052603260045260246000fd5b6000610a53826104f5565b91507fffffffffffffffffffffffffffffffffffffffffffffffffffffffffffffffff8203610a8557610a84610956565b5b60018201905091905056fea264697066735822122074eb351079edd7e73abf749240488f35f8b74bff577c68b92bc37b97e68f97e364736f6c634300080d0033",
  "immutableReferences": {},
  "source": "\n// SPDX-License-Identifier: UNLICENSED\n\n\npragma solidity \"0.8.13\";\n// pragma experimental ABIEncoderV2;\n\ncontract Todo{\n    uint public count=0;\n    mapping(uint=>Task) public todolist;\n\n    struct Task{\n        uint id;\n        string content;\n        bool completed;\n\n    }\n    constructor() {\n        addTask(\"First Task\");\n    }\n\n    function  addTask(string memory _content) public  {\n        // require(msg.sender==);\n        todolist[count++]=Task(count,_content,false);\n    }\n\n    function gettask(uint id) public view returns( string memory){\n        Task memory ret=todolist[id];\n        return ret.content; \n    }\n\n    function gettasklist() public view returns(string[] memory){\n        string[] memory res;\n        for(uint256 i=0;i<count-1;i++){\n            string memory t=todolist[i].content;\n            res[i]=t;\n        }\n        return res;\n    }\n\n}\n\n",
  "sourcePath": "/home/praneeth/BlockChain/eth-todo-list/contracts/Todo.sol",
  "compiler": {
    "name": "solc",
    "version": "0.8.13+commit.abaa5c0e.Emscripten.clang"
  },
  "schemaVersion": "3.4.7",
  "updatedAt": "2022-06-01T12:39:26.718Z",
  "devdoc": {
    "kind": "dev",
    "methods": {},
    "version": 1
  },
  "userdoc": {
    "kind": "user",
    "methods": {},
    "version": 1
  }
}